:020000040800F2
:10000000080B002041020008710A0008B10A00082C
:10001000B50A0008B90A0008BD0A0008000000007F
:10002000000000000000000000000000C10A0008FD
:10003000C30A000800000000C50A0008C70A00083B
:100040005B0200085B0200085B0200085B0200081C
:100050005B0200085B0200085B0200085B0200080C
:100060005B0200085B0200085B0200085B020008FC
:100070005B0200085B0200085B0200085B020008EC
:100080005B0200085B0200085B0200085B020008DC
:10009000171200085B0200085B020008431A000800
:1000A0005B0200085B0200085B0200085B020008BC
:1000B0005B0200085B0200082F0700085B020008D3
:1000C0005B0200085B0200085B0200085B0200089C
:1000D0005B0200085B020008EF050008730A0008D5
:1000E000531900085B0200085B02000800000000D2
:1000F0000000000000000000000000000000000000
:1001000000000000000000005B0200085B02000825
:100110005B0200085B0200085B0200085B0200084B
:100120005B0200085B0200085B0200085B0200083B
:100130005B0200085B0200085B0200085B0200082B
:100140005B020008FF1200085B0200085B02000867
:1001500000F002F800F062F80AA090E8000C824477
:100160008344AAF10107DA4501D100F057F8AFF254
:10017000090EBAE80F0013F0010F18BFFB1A43F085
:1001800001031847A45E0000C45E00000A444FF05B
:10019000000C10F8013B13F0070408BF10F8014BE6
:1001A0001D1108BF10F8015B641E05D010F8016B2B
:1001B000641E01F8016BF9D113F0080F1EBF10F88F
:1001C000014BAD1C0C1B09D16D1E58BF01F801CBB2
:1001D000FAD505E014F8016B01F8016B6D1EF9D535
:1001E0009142D6D37047000000230024002500264A
:1001F000103A28BF78C1FBD8520728BF30C148BF8A
:100200000B607047642904F0BD80782904F0F68003
:10021000002070471FB51FBD10B510BD04F0A0FA37
:100220001146FFF7F7FF00F0B3F804F0BEFA03B48D
:10023000FFF7F2FF03BC00F04FFC000030BF0000EE
:100240000948804709480047FEE7FEE7FEE7FEE76A
:10025000FEE7FEE7FEE7FEE7FEE7FEE704480549A6
:10026000054A064B704700009D42000851010008F6
:1002700008050020080B00200807002008070020C0
:1002800001B508E0002001E0411CC8B26428FBDB96
:100290000099491E009100990029F3D108BD08B5C5
:1002A0000121402001F0DDFE0320ADF80000142004
:1002B0008DF8030003208DF802006946FE4801F026
:1002C00095FF08BD08B50121202001F0CAFE0320DA
:1002D000ADF8000010208DF8030003208DF8020017
:1002E0006946F64801F082FF08BD08B501211020DB
:1002F00001F0B7FE40F2A510ADF8000010208DF817
:10030000030003208DF802006946ED4801F06EFFFE
:1003100008BD08B50121082001F0A3FE4FF43460A8
:10032000ADF8000010208DF8030003208DF80200C6
:100330006946E44801F05AFF08BD7FB505460C4602
:100340000121042001F09AFEADF80850ADF80440F8
:100350000020ADF80600ADF80A0001A9DA4803F064
:1003600063F801221146D84803F0D5FB1E208DF812
:10037000000001208DF803008DF801008DF80200C7
:10038000684601F0EAFB0121CF4803F0A9FB7FBDDD
:10039000092000F083FD00F0B2FB00F010FC01F03A
:1003A000CFF94FF4A06001F0D3FB40F2CF2140F22F
:1003B000CF70FFF7C2FFFFF7ACFFFFF796FFFFF725
:1003C00081FFFFF76CFF482000F096FC0823032212
:1003D0001146002000F0B8FD08230322114600203A
:1003E00000F02BFE4FF4FA60FFF74AFF0020B749F8
:1003F00008604021B34801F0A6FF4FF48071B14876
:1004000001F0A1FF4FF40071AE4801F09CFF022102
:10041000AA4801F098FF0121A74801F096FF0221A8
:10042000A54801F092FF0121A44801F08CFFA849E2
:10043000A84800F07CFE012000F07AFCA649A548FF
:1004400000F075FE012000F073FCA449A14800F003
:100450006EFE012000F06CFCA1499E4800F067FE92
:10046000012000F065FC9F499A4800F060FE0120E1
:1004700000F05EFC9C49974800F059FE012000F016
:1004800057FC78E09249934800F051FE012000F0BB
:100490004FFC91498F4800F04AFE012000F048FCD3
:1004A0008E498C4800F043FE012000F041FC8C494D
:1004B000884800F03CFE012000F03AFC894985485C
:1004C00000F035FE012000F033FC8749814800F040
:1004D0002EFE012000F02CFC7C48006801282AD167
:1004E0007B497C4800F023FE012000F021FC7A4982
:1004F000784800F01CFE012000F01AFC774975488E
:1005000000F015FE012000F013FC7549714800F061
:100510000EFE012000F00CFC74496E4800F007FE4E
:10052000012000F005FC72496A4800F000FE01203D
:1005300000F0FEFB1FE06548006802281BD16449FB
:10054000644800F0F4FD012000F0F2FB62496148CC
:1005500000F0EDFD012000F0EBFB66495D4800F086
:10056000E6FD012000F0E4FB63495A4800F0DFFD9E
:10057000032000F0DDFB85E710B503F08FFE10BD12
:1005800008B50121082001F06CFD4FF48060ADF842
:10059000000028208DF8030069464A4801F026FE35
:1005A0004FF48061474801F0D0FE08BD08B5012135
:1005B000102001F056FD4FF48070ADF800002820A7
:1005C0008DF8030069463E4801F010FE08BD08B5ED
:1005D0000121402001F045FD0C20ADF8000028204D
:1005E0008DF803006946344801F000FE08BD10B5DF
:1005F00040F22551414802F007F900285AD040F254
:1006000025513E4802F02AF93D4A3E493E4800F055
:10061000E1FE3B480078012849D12C4908603A485E
:100620000068002807DD384801783048C173002190
:100630000174417481743448006828B900212B4842
:10064000C1730174417481742F480068002807DA6F
:100650002D4801782548C173FF21017441748174CC
:100660002848006800280BDD26480068401EC0F1BD
:10067000FF00C1B21E48C173FF210174417481742F
:1006800020480068002809DA1E4800784042C1B2BC
:100690001748C173002101744174817419480068BE
:1006A00028B900211248C17301744174817414483F
:1006B00000782BE02EE000000018014000140140FB
:1006C00000100140000C014000080040EC03002035
:1006D0004802002000640040E80200205C02002084
:1006E000FC020020AC0200204C0300209C030020F0
:1006F000B0030020700200201003002000440040DE
:1007000024000020200000201C000020022801D12D
:10071000B249086040F22771B14802F075F828B17B
:10072000002240F22771AE4801F089FF10BD2DE98B
:10073000F04F89B00121AB4803F09BFC00287DD02D
:100740000022A94BA94903C904F0F4FC044604F0B3
:1007500049FEA74908600022A34BA64903C904F03B
:10076000E9FC044604F03EFEA34908600846006820
:10077000404208609E48006804F063FE80469F4A3D
:100780009F4B04F089FE82469E4A9F4B04F084FEF4
:10079000064600229D4B04F0CDFC044604F0E8FB25
:1007A0009B4908609448006804F04BFE8046934AD9
:1007B000934B04F071FE0646924A934B04F06CFE94
:1007C00004460022914B04F0B5FC824604F0D0FBB5
:1007D00090490860084601688D48006805F088FA6D
:1007E00081464FF0804105F0D9F8044605F048F8FD
:1007F00007464FF06632884B04F09CFC054604F037
:10080000B7FB86490860834801688148006805F0A5
:1008100063F804464FF0804105F0C0F88049086055
:100820000846006805F02CF882468B467B48006835
:1008300005F026F8804604F0FDFA00E0CBE006461D
:1008400052465B4604F028FE044604F091FB7549CD
:1008500008607348006805F013F804460D466F48B9
:10086000006805F00DF8064604F032FB804622468B
:100870002B4604F011FE824604F07AFB6A490860B8
:100880006A49886804F0FCFF064604F021FB044630
:1008900004F06EFB664908606449886804F0F0FF64
:1008A000064604F0C7FA044604F062FB614908609A
:1008B0005D4801685E48006805F04EF906465948F3
:1008C00001685C48006805F047F90746314605F0C5
:1008D0000FFA0546584905F061F804465348016887
:1008E000204604F0F9FF514908604F48016851481B
:1008F000006805F031F906464A4801684C4800682E
:1009000005F02AF90746314604F0E6FF05464A4954
:1009100005F044F8044645484168204604F0DCFFF1
:100920004249486088683D49096804F0D5FF3F495D
:1009300088600868404905F00FF9044605F0F0F8B2
:100940003E490860394948683B4905F005F90446C5
:1009500005F0E6F83A49086034498868364905F0F8
:10096000FBF8044605F0DCF83649086036480078A4
:100970003649B1F90010364AB2F90020354BB3F9C7
:100980000030CDE90532CDE907103348B0F9000059
:100990003249B1F90010324AB2F90020314BB3F9B3
:1009A0000030CDE90132CDE903102F48B0F9000045
:1009B00000902E48B0F900302248008802B220484A
:1009C000008801B21D48008800B200F0EEFD012150
:1009D000044803F05FFB09B0BDE8F08FEC03002092
:1009E000004400400008004000408F4010040020F8
:1009F0004002002018040020440200207B14AE476F
:100A0000E1FA45401B2FDD240681953F00004E4052
:100A1000240200202802002066E631402800002041
:100A20002C0000201C02002020020020680400206E
:100A30002C020020300200200000C84234020020B6
:100A4000380200203C020020180000201600002080
:100A50001400002012000020100000200E000020D2
:100A60000C0000200A0000200800002006000020E2
:100A7000704710B540F22551134801F0C5FE50B142
:100A8000114801F041FEC4B210A003F033FC21462E
:100A900010A003F02FFC40F227710B4801F0B4FEC8
:100AA00028B1002240F22771074801F0C8FD10BDAF
:100AB00000BFFEE700BFFEE700BFFEE700BFFEE7A6
:100AC0007047704770477047004800407573617207
:100AD0007433000020257800014600BF704770B5D0
:100AE00004460D46E1B2804801F00AFE00BF7E4890
:100AF000008800F080000028F9D0204670BD00B5C5
:100B000087B00121052001F0ACFA0121480401F071
:100B1000B5FA0420ADF8180018208DF81B0003204A
:100B20008DF81A0006A9714801F060FB0820ADF8A5
:100B3000180004208DF81B0003208DF81A0006A968
:100B40006A4801F053FB684801F09EFC4FF4E13025
:100B500002900020ADF80C00ADF80E00ADF81000CA
:100B6000ADF814000C20ADF8120002A95E4801F0A7
:100B7000CEFC012240F225515B4801F060FD0122CC
:100B800040F22771584801F05AFD0121564801F002
:100B90004AFD4021544801F02EFE4FF4E06000F081
:100BA000D7FF26208DF8040000208DF806000120D4
:100BB0008DF8070001A800F0D0FF07B000BD00B518
:100BC00087B00121092001F04CFA0121880401F0CD
:100BD00055FA4FF48060ADF8180018208DF81B000E
:100BE00003208DF81A0006A9414801F0FFFA4FF4DE
:100BF0000060ADF8180004208DF81B0003208DF86C
:100C00001A0006A93A4801F0F1FA3A4801F03CFC12
:100C10004FF4E13002900020ADF80C00ADF80E006A
:100C2000ADF81000ADF814000C20ADF8120002A9C8
:100C3000304801F06CFC012240F225512D4801F0B2
:100C4000FEFC012240F227712A4801F0F8FC012144
:100C5000284801F0E8FC4021264801F0CCFD4FF483
:100C6000E06000F075FF27208DF8040000208DF86B
:100C7000060001208DF8070001A800F06EFF07B004
:100C800000BD2DE9F04107460D46164600240CE054
:100C9000295D384601F034FD00BF4021384601F09F
:100CA0009DFD0028F9D0601C84B2B442F0DBBDE8A1
:100CB000F0812DE9F04106460C46204603F066FC23
:100CC000C7B200250CE0615D304601F019FD00BFA0
:100CD0004021304601F082FD0028F9D0681CC5B2E1
:100CE000BD42F0DBBDE8F081004400400008014057
:100CF000000C0140004800404FF0E021096921F05C
:100D000004014FF0E0221161C21700EB5272C2F3EE
:100D1000C702234B1A701946097801EB4102C2EB56
:100D2000C1114FF6FF7202EAC1011E4A11807047DD
:100D300001461C4A12884A434FF0E0235A610022C0
:100D40009A6101221A6100BF4FF0E022106900F0A1
:100D500001021AB100F48032002AF5D000224FF0CF
:100D6000E0231A619A61704701460D4A12784A439E
:100D70004FF0E0235A6100229A6101221A6100BFFC
:100D80004FF0E022106900F001021AB100F4803245
:100D9000002AF5D000224FF0E0231A619A617047D3
:100DA000F8030020FA0300205E4A0A4002435E4B2B
:100DB0001A6070470146072323EA010212025A4BC8
:100DC0001B1D18684FF6FF031840584B184310437B
:100DD000554B1B1D18607047002055490861C860BD
:100DE0001420486100208861C8610846006840F00E
:100DF00001000860084640684E4908404C49486078
:100E0000084600684C49084049490860084600689F
:100E100020F4802008600846406820F4FE00486006
:100E200000208860704710B53F480830006840F0E7
:100E300004003D49083108603D48C06940F08050D9
:100E40003B49C8613D48406840F480703B49486078
:100E50000846006840F0040008600846006840F05A
:100E600002000860FFF7EAF910BD3048001D2E4966
:100E7000091D08607047014649062D4A926942F0F3
:100E800001022B4B9A612E4A526822F0E0622C4BF1
:100E90005A601A4652680A435A60704700B50246C3
:100EA0000023FFF799FF2248006840F48030204972
:100EB000086000BF1E480068400C0028FAD04FF4BC
:100EC00080601B494860901EC2B20846406840EAF4
:100ED000824048600846406840F4803048601948C5
:100EE000006840F03200174908601148006840F07F
:100EF00080700F49086000BF0D480068400E002850
:100F0000FAD00B48406840F002000949486005E00B
:100F100007484068C0F3870303F00303022BF7D1AF
:100F200000BD000080FFFF1F08ED00E00000FA0593
:100F3000001002400000FFF8FFFFF6FE00700040C6
:100F40000000014000200240F0B589B007460C4681
:100F500015461E460121052001F083F801214806AF
:100F600001F08CF84FF40060ADF8200048208DF8B7
:100F7000230003208DF8220008A9F34801F036F978
:100F80004FF48050ADF8200018208DF82300032086
:100F90008DF8220008A9EC4801F028F914208DF8FA
:100FA000000000208DF801008DF8020001208DF86E
:100FB0000300684600F0D1FDE44801F069FC05A893
:100FC00001F08AFD00208DF81A008DF81B008DF8C5
:100FD0001C008DF81D008DF81E008DF81F008DF887
:100FE00016008DF817708DF818408DF81950ADF86F
:100FF000146005A9D54801F064FC00208DF80E00AE
:101000008DF80F0001208DF810000020ADF80400CD
:10101000ADF80600ADF80800ADF80A00ADF80C0018
:1010200001208DF8110001A801F0D5FC0122022158
:10103000C64801F0CFFF09B0F0BDF0B589B0074652
:101040000C4615461E460121092001F00AF801212F
:10105000880601F013F84FF48050ADF820004820C6
:101060008DF8230003208DF8220008A9B84801F06C
:10107000BDF84FF40050ADF8200018208DF8230083
:1010800003208DF8220008A9B14801F0AFF84120F3
:101090008DF8000000208DF8010001208DF802007D
:1010A0008DF80300684600F058FDAA4801F0F0FBF7
:1010B00005A801F011FD00208DF81A008DF81B0025
:1010C0008DF81C008DF81D008DF81E008DF81F0096
:1010D0008DF816008DF817708DF818408DF819509E
:1010E000ADF8146005A99B4801F0EBFB0E208DF8CC
:1010F0000E0000208DF80F0001208DF81000002058
:10110000ADF80400ADF80600ADF80800ADF80A002F
:101110000120ADF80C008DF8110001A801F05BFC76
:10112000012210218B4801F055FF09B0F0BD2DE9D7
:10113000F04104460D46002600272946204601F0CE
:1011400039FD0746761C0026BDE8F0812DE9F04107
:1011500005460E461746002407E0325D7EA128466C
:1011600003F0D4F8ED1C601CC4B2BC42F5DBBDE852
:10117000F08130B58FB005460C463C21684603F03F
:1011800024FA2A4676A1684603F0C0F869467548F5
:10119000FFF78FFD207AE0B973A16846226803F05B
:1011A000B5F869466F48FFF784FDA27A71A16846D9
:1011B00003F0ACF869466B48FFF77BFD082204F1A9
:1011C0000B016846FFF7C2FF69466648FFF771FDED
:1011D0001BE069A16846626803F098F869466148B7
:1011E000FFF767FDA27A63A1684603F08FF86946AE
:1011F0005C48FFF75EFD082204F10B016846FFF72B
:10120000A5FF69465748FFF754FD5EA15548FFF713
:1012100050FD0FB030BD10B586B000240020019005
:1012200002908DF80C008DF80E008DF817008DF8E7
:101230000F0000218DF8101001AA444801F0AFFD05
:1012400040F281110198884229D19DF812007F282F
:1012500011DA9DF80F209DF810104FF4807303FBF6
:1012600001229DF811101B0203FB012004F0E9F894
:10127000454A03C213E09DF80F10FF399DF8102076
:10128000FF3A4FF4807303FB02129DF81110FF39EF
:101290001B0203FB012004F0D4F83B4A03C201986F
:1012A000B0F5C17F29D19DF812007F2811DA9DF891
:1012B0000F209DF810104FF4807303FB01229DF85E
:1012C00011101B0203FB012004F0BBF82F4A03C2DC
:1012D00013E09DF80F10FF399DF81020FF3A4FF4EE
:1012E000807303FB02129DF81110FF391B0203FBF0
:1012F000012004F0A6F8254A03C206B010BD10B5BF
:1013000086B000240020019002908DF80C008DF82A
:101310000E008DF8170001AA00210E4801F03FFDD4
:1013200000210C4801F0B3FD00BF06E00DF10F00F5
:10133000015D17A002F0DEFF641C082CF6DB16A08E
:1013400002F0D8FF06B010BD000801400064004064
:10135000000C0140006800402C253032580000008D
:1013600025640000004400402C5330782530385864
:10137000000000002C2564002C45307825303858BA
:10138000000000000D0A00001004002018040020D6
:1013900025782020000000000D0A200030B502460C
:1013A0000B46002010E012F8014B6040002109E0DC
:1013B00000F001041CB18C2484EA600000E04010BD
:1013C0004C1CE1B20829F3DB1C1EA3F10105ABB2F2
:1013D000E9D130BD2DE9F04105460E4617460024FF
:1013E000BD4801F091F9C4B2BC480078112818D169
:1013F000AA2C13D1BA48007855280ED10020B7493D
:101400000870B8480078B8490870B6484078487005
:101410000020B6490870B6490870AAE0B0480470C8
:10142000A7E0B248007830B101280FD002282AD0B6
:1014300003287DD149E0AC4884708078AD490880AC
:10144000AA480078401CA949087091E0A649AA481A
:10145000B0F90000C01C0C54A7480088401C00B222
:10146000A54908800846B0F90000A249B1F900106A
:10147000884207DB0020A04908809C480078401C77
:101480009A49087074E09B48B0F90000C01C964966
:101490000C5498480088C01C81B29348FFF77EFF27
:1014A000934908709348B0F90000C01C8E49085C4D
:1014B0008F490978884202D00020BDE8F0818B482E
:1014C0000078401C8949087052E08C48008830B987
:1014D0008A480088401C00B28849088046E0874856
:1014E0000088012842D10020844908801BE07E4901
:1014F0008248B0F90000C01C095C81487F4AB2F9FB
:101500000020815478497D48B0F90000401D085CF6
:101510007C497A4AB2F90020885478480088401CF7
:1015200000B2764908807548B0F90000022800E052
:101530001DE0DCDB7248B0F9000028607148B0F9AA
:10154000000030606848C079387000206749087032
:1015500063490870112061490870002064490870CF
:1015600064490880644908806449088000E000BF3D
:1015700000BF0020A1E710E000BF574A128802F028
:101580008002002AF9D00278534B1B1D1A80401CA0
:101590005D4A1268521C5C4B1A605B4A12688A42B0
:1015A000EADB0022584B1A6070472DE9F04F89B0F2
:1015B00006460F4690469946DDE912AB202101A868
:1015C00003F003F800255148068051480780514830
:1015D000A0F800805048A0F800905048A0F800A063
:1015E0004F48A0F800B04F49149808804E4915980C
:1015F00008804E49169808804D49179808804D4933
:10160000189808804C4919980880002404E035484F
:10161000005D01A90855641C022CF8DB19258DF822
:10162000065000243AE03948015D01AAE01C11543B
:101630003748015D601D11543648015DE01D1154AD
:101640003548015D04F1090011543448015D04F18D
:101650000B0011543248015D04F10D001154314862
:10166000015D04F10F0011542F48015D04F11100D8
:1016700011542E48015D04F1130011542C48015DF2
:1016800004F1150011542B48015D04F117001154A9
:101690002948015D04F119001154641C022CC2DBBD
:1016A000A81C01AA1A991154E81C81B201A8FFF7DD
:1016B00075FEE91C01AA505420480178281D1154D8
:1016C0001E484178681D11541F2101A8FFF753FFE0
:1016D00009B0BDE8F08F0000004400404304002042
:1016E00042040020CA5E0008880400203D04002057
:1016F0003C040020440400203E040020400400205C
:10170000380400203A04002048040020200400206F
:1017100022040020240400202604002028040020A5
:101720002A0400202C0400202E0400203004002075
:10173000320400203404002036040020CC5E00086F
:1017400010B54FF4A06000F003FA00F0BFF900F00C
:10175000C2F810BD3EB505460C460121022000F03E
:101760008DFCADF80450ADF800400020ADF802004B
:10177000ADF806006946D04801F056FE0021CE487B
:1017800002F0AEF93EBD08B50121102000F069FC61
:101790004FF46070ADF8000010208DF803000320B6
:1017A0008DF802006946C54800F020FD4FF48071B5
:1017B000C24800F0CAFD8021C04800F0C6FD4FF4C9
:1017C0000071BE4800F0C1FD0121082000F049FC75
:1017D0004FF48040ADF8000028208DF8030003206E
:1017E0008DF802006946B64800F000FD012108208E
:1017F00000F037FC4FF40040ADF8000028208DF8D1
:10180000030003208DF802006946AD4800F0EEFCAD
:101810000121102000F025FC4020ADF80000282018
:101820008DF8030003208DF802006946A34800F0FC
:10183000DDFC08BD0EB50121084600F012FC0E21AA
:10184000012000F0E9FD0F21012000F0E5FD4FF43B
:101850004040019000208DF8080008208DF8090014
:1018600001208DF80A0001A802F026FC28208DF83E
:10187000000002208DF8010001208DF802008DF893
:101880000300684600F069F90EBD0EB50121084657
:1018900000F0E7FB0621022000F0BEFD4020019091
:1018A00000208DF8080008208DF8090001208DF82F
:1018B0000A0001A802F000FC17208DF800000220A9
:1018C0008DF8010001208DF802008DF803006846B4
:1018D00000F043F90EBD10B5FFF755FFFFF7AAFF63
:1018E000FFF7D3FF40F2CF214FF6FF70FFF732FF33
:1018F00010BD10B54FF48071704800F024FD142025
:10190000FFF732FA4FF480716C4800F01EFD0A2098
:10191000FFF70EFA8021694800F015FD1420FFF74B
:1019200023FA8021654800F010FD0A20FFF700FA35
:101930004FF40071614800F006FD1420FFF714FA1F
:101940004FF400715D4800F000FD0A20FFF7F0F948
:1019500010BD2DE9F0414FF4804002F013FCA0B31C
:101960004FF4804002F01FFC0021534802F04CFB72
:101970000121514802F0B4F807E04F4802F067FB3C
:1019800040F2DC51884200DB06E04FF480414C48D5
:1019900000F0BFFC0028F0D100BF0021464802F053
:1019A0009FF8454802F053FB4FF4AA7100FB01F485
:1019B000204603F046FD05460022424B03F0BAFBE9
:1019C000074603F0D5FA404908604FF4004002F0A2
:1019D000D9FBA0B34FF4004002F0E5FB00213648EC
:1019E00002F012FB0121344802F07AF807E0324895
:1019F00002F02DFB40F2DC51884200DB06E04FF4A0
:101A000000412F4800F085FC0028F0D100BF0021E4
:101A1000294802F065F8284802F019FB4FF4AA7132
:101A200000FB01F4204603F00CFD05460022254B87
:101A300003F080FB074603F09BFA23494860BDE8AA
:101A4000F0812DE9F041402002F09CFB90B3402052
:101A500002F0A9FB0021184802F0D6FA012116482D
:101A600002F03EF807E0144802F0F1FA40F2DC51CF
:101A7000884200DB05E04021104800F04AFC0028C5
:101A8000F1D100BF00210C4802F02AF80A4802F008
:101A9000DEFA4FF4AA7100FB01F4204603F0D1FCFA
:101AA00005460022074B03F045FB074603F060FAAA
:101AB00005498860BDE8F081000400400010014045
:101AC000000C014000409F409804002030B50020E9
:101AD0001B4908601B4908604821B1F1807F01D390
:101AE00001201DE021F07F40401E4FF0E0225061B8
:101AF00050170F22002807DA13071D0E124B00F0B3
:101B00000F04241F1D5503E013071C0E0F4B1C541C
:101B100000BF00204FF0E0229061072010610020FC
:101B200008B100BFFEE730BD0648006870470448B2
:101B30000068704700200249086002490860704749
:101B40004C0400205004002018ED00E000E400E008
:101B500031490143314A1160704770B500210023BB
:101B60000F22C47804B32D4C246804F4E064C4F557
:101B7000E064210AC1F10403CA40447804FA03F185
:101B80008478144021430901254C0678A155047836
:101B900004F01F050124AC4005786D11AD0005F17E
:101BA000E025C5F8004109E0047804F01F05012490
:101BB000AC401C4D0678761145F8264070BD1A4A97
:101BC0000A400243154B1B1F1A60704739B1134A74
:101BD000121D12680243114B1B1D1A6006E00F4ACA
:101BE000121D126882430D4B1B1D1A60704704289A
:101BF00008D14FF0E021096941F004014FF0E022E3
:101C0000116107E04FF0E021096921F004014FF074
:101C1000E0221161704700000000FA050CED00E0C1
:101C200000E400E080E100E080FFFF1FFB48006867
:101C300040F00100F949086008464068F84908404A
:101C4000F649486008460068F6490840F3490860CC
:101C50000846006820F4802008600846406820F4A8
:101C6000FE0048600846006820F0A05008604FF46D
:101C70007F0088600020C8627047E849096821F445
:101C80008031E64A11601146096821F48021116013
:101C9000B0F5803F03D0B0F5802F0ED106E0DF49CC
:101CA000096841F48031DD4A116007E0DB490968C9
:101CB00041F4A021D94A116000E000BF00BF704785
:101CC00010B501460022002300204A11012A02D14A
:101CD000D24C236806E0022A02D1D04C236A01E0EC
:101CE000CE4C636A01F01F02012494401C400CB1E9
:101CF000012000E0002010BD38B500200090002435
:101D0000002500BF3120FFF7DBFF05460098401C8F
:101D100000900098B0F5A06F01D0002DF2D03120D6
:101D2000FFF7CEFF08B1012400E00024204638BDB3
:101D300001460020B94A106820F0F80040EAC100CE
:101D400010607047B8490860704702460020B34BE6
:101D5000586820F4741042EA01031843AF4B5860EE
:101D60007047B1490866704702460020AB4BD86AFD
:101D7000AE4B184042EA01031843A84BD8627047A3
:101D800001460020A54AD06A20F0F0000843D06246
:101D9000704701460020A14AD06A20F470600843D1
:101DA000D0627047A04988667047014600209B4A70
:101DB000D06A20F470400843D06270479A4908679F
:101DC000704701460020954A506820F00300084300
:101DD000506070479148406800F00C007047014621
:101DE00000208E4A506820F0F00008435060704791
:101DF00001460020894A506820F4E06008435060A2
:101E0000704701460020854A506820F4605040EA3F
:101E1000C1005060704729B1804A527A02437F4B1B
:101E20005A7204E07D4A527A82437C4B5A72704760
:101E30007D49D8310860704701460020774A5068D4
:101E400020F440400843506070477949086070476B
:101E50007749091D086070470021704A20321170CF
:101E60006E4A82F82010012802D004280AD104E02A
:101E700001216A4A2032117005E00521674A2032AB
:101E8000117000E000BF00BF70476A4908607047EA
:101E90006249096A0143614A1162704765494439E0
:101EA000086070472DE9F041002100220025002341
:101EB0000026002400278C46DFF86081D8F80480D3
:101EC00008F00C0121B1042907D0082959D109E0F3
:101ED000DFF86481C0F8008058E0DFF85C81C0F86A
:101EE000008053E0DFF83481D8F8048008F47012E1
:101EF000DFF82881D8F8048008F48035920C0D2A88
:101F000001D0921C00E0062235B9DFF8308102FBD7
:101F100008F8C0F8008033E0DFF80081D8F82C80A2
:101F200008F48036DFF8F480D8F82C8008F00F0829
:101F300008F1010446B9DFF80081B8FBF4F808FBAA
:101F400002F8C0F800801BE0DFF8D080D8F82C80C1
:101F5000C8F3031808F10107DFF8C080D8F82C8017
:101F6000C8F3032808F1020CDFF8CC80B8FBF7F8BF
:101F700008FB0CF8B8FBF4F808FB02F8C0F8008086
:101F800004E0DFF8B480C0F8008000BF00BFDFF8D5
:101F90008C80D8F8048008F0F0010909DFF8A080EF
:101FA00018F80130D0F8008028FA03F8C0F804804F
:101FB000DFF86880D8F8048008F4E061090ADFF8E7
:101FC000808018F80130D0F8048028FA03F8C0F8AF
:101FD0000880DFF84880D8F8048008F46051C90A06
:101FE000DFF85C8018F80130D0F8048028FA03F894
:101FF000C0F80C80DFF82480D8F8048008F4404151
:10200000890BDFF8408018F80130D0F80C80B8FB5D
:10201000F3F8C0F81080BDE8F08100000010024025
:102020000000FFF0FFFFF6FE00004242F0FFFEFF5F
:10203000C40542428004424200127A0000093D0079
:10204000540400206404002029B1354A5269024337
:10205000334B5A6104E0324A52698243304B5A6131
:10206000704729B12E4A926902432D4B9A6104E0D0
:102070002B4A926982432A4B9A61704729B1284AB8
:10208000D2690243264BDA6104E0254AD2698243D1
:10209000234BDA61704729B1214A926A0243204BEF
:1020A0009A6204E01E4A926A82431D4B9A6270470C
:1020B00029B11B4AD2680243194BDA6004E0184A7E
:1020C000D2688243164BDA60704729B1144A12690C
:1020D0000243134B1A6104E0114A12698243104B08
:1020E0001A6170470F49086070470F49C86470470C
:1020F0000B49C87170470A48406A40F0807008492F
:102100004862704701460020054A92680A400AB1B9
:10211000012000E0002070470149887270470000EC
:1021200000100240400442420000424210B5044602
:10213000CC48844208D101210420FFF7B9FF0021D7
:102140000420FFF7B5FF46E0C748844208D10121CB
:102150000820FFF7ADFF00210820FFF7A9FF3AE0B4
:10216000C248844208D101211020FFF7A1FF0021BD
:102170001020FFF79DFF2EE0BD48844208D10121C9
:102180002020FFF795FF00212020FFF791FF22E09C
:10219000B848844208D101214020FFF789FF00217F
:1021A0004020FFF785FF16E0B348844208D10121A3
:1021B0008020FFF77DFF00218020FFF779FF0AE0F4
:1021C000AE48844207D101218015FFF771FF00213D
:1021D000A015FFF76DFF10BD10B501210846FFF7F0
:1021E00067FF00210120FFF763FF10BD2DE9F041DB
:1021F000024600250026002000230024002791F835
:1022000003C00CF00F0591F803C00CF0100CBCF1EA
:10221000000F03D091F802C04CEA050591F800C008
:10222000BCF1000F31D0146800202BE04FF0010CFE
:102230000CFA00F3B1F800C00CEA03069E4220D16C
:1022400083004FF00F0C0CFA03F7BC4305FA03FCB4
:102250004CEA040491F803C0BCF1280F06D14FF0FA
:10226000010C0CFA00FCC2F814C00AE091F803C09B
:10227000BCF1480F05D14FF0010C0CFA00FCC2F87C
:1022800010C0401C0828D1D31460B1F800C0BCF1C4
:10229000FF0F34DD546800202EE000F1080C4FF0F1
:1022A000010808FA0CF3B1F800C00CEA03069E42DC
:1022B00021D183004FF00F0C0CFA03F7BC4305FA51
:1022C00003FC4CEA040491F803C0BCF1280F05D1CB
:1022D00000F1080C08FA0CF8C2F8148091F803C059
:1022E000BCF1480F07D100F1080C4FF0010808FAC3
:1022F0000CF8C2F81080401C0828CED35460BDE80A
:10230000F0814FF6FF710180022181700421C170BC
:1023100070470246002093680B400BB1012000E09B
:10232000002070470146886880B27047024600204E
:10233000D3680B400BB1012000E00020704701463C
:10234000C86880B2704701617047416170470AB147
:10235000016100E041617047C16070474FF4803215
:102360000A438261816182618269826970470246A3
:102370000020434B18684FF68073184040EA021063
:1023800008433F4B186070473E49C8617047F0B53D
:102390000A46002300240021002500F00046B6F183
:1023A000004F02D1364EF16901E0354E7168C0F33D
:1023B000034583B200F44016B6F5401F08D121F062
:1023C00070612F4E766826F070662D4F7E6012E0A9
:1023D00000F48016B6F5801F06D1032606FA05F430
:1023E000A14341F0706106E0460D360103FA06F69E
:1023F000B14341F0706122B1460D360103FA06F691
:10240000314300F00046B6F1004F02D11C4EF1619D
:1024100001E01B4E7160F0BD30B500228B071C0F30
:102420000F2303FA04F2164B08338C1053F82430B0
:102430009343134C08348D1044F8253023468C10F8
:1024400053F824308C07240F00FA04F423430C4C77
:1024500008348D1044F8253030BD0A49DC3108605D
:102460007047000000080140000C014000100140CE
:102470000014014000180140001C014000200140F0
:10248000000001400000204210B50446FB48844291
:1024900009D101218803FFF70BFE00214FF4804092
:1024A000FFF706FE32E0F648844209D101214804D4
:1024B000FFF70BFE00214FF40030FFF706FE25E08A
:1024C000F048844209D101218804FFF7FEFD002174
:1024D0004FF48020FFF7F9FD18E0EB48844209D162
:1024E0000121C804FFF7F1FD00214FF40020FFF7A0
:1024F000ECFD0BE0E548844208D101210805FFF717
:10250000E4FD00214FF48010FFF7DFFD10BD2DE941
:10251000F04786B005460E460024A24600BFA146FD
:102520000027B08900B100BF2F462C8A4CF6FF70FF
:102530000440F08804432C82AC894EF6F31004402A
:10254000B08831890843718908430443AC81AC8A5F
:102550004FF6FF400440B0890443AC8201A8FFF766
:10256000A1FCC648874202D1DDF810A001E0DDF8E9
:102570000CA0A88900F4004040B10AEBCA0000EBAF
:102580000A1031684900B0FBF1F807E00AEBCA0015
:1025900000EB0A1031688900B0FBF1F86420B8FB49
:1025A000F0F004012009642101FB1089A88900F4DE
:1025B000004040B1322000EBC900B0FBF1F000F068
:1025C0000700044308E0322000EB09106421B0FB4F
:1025D000F1F000F00F0004432C8106B0BDE8F08755
:1025E0004FF41651016000218180C18001810C21CE
:1025F000418100218181704710B502460020108A78
:102600004FF2FF0318400B884C8823438C882343E8
:10261000CC8823431843108210BD002101804180E3
:102620008180C180704721B1828942F40052828149
:1026300004E082894DF6FF731A4082817047F0B53D
:102640000346002400260025002040F66A17B94200
:1026500000D100BF1846C1F3421401F01F06012744
:1026600007FA06F5012C01D10C3004E0022C01D14F
:10267000103000E014301AB107682F43076002E001
:102680000768AF430760F0BD1AB1838A0B438382AA
:1026900002E0838A8B4383827047028A4FF6F0738D
:1026A0001A400282028A0A430282704782894FF2EC
:1026B000FF731A40828182890A438281704721B167
:1026C000828942F00202828104E082894FF6FD7322
:1026D0001A4082817047028A4FF6DF731A400282E5
:1026E000028A0A430282704721B1028A42F4804280
:1026F000028204E0028A4BF6FF731A40028270479E
:10270000C1F308028280704701468888C0F3080040
:102710007047818941F0010181817047028BD2B2FB
:102720000283028B42EA012202837047028B02F489
:102730007F420283028B0A430283704721B1828A5F
:1027400042F02002828204E0828A4FF6DF731A4050
:102750008282704721B1828A42F01002828204E0B4
:10276000828A4FF6EF731A408282704721B1828AC3
:1027700042F00802828204E0828A4FF6F7731A4020
:102780008282704721B1828942F40042828103E053
:102790008289C2F30E028281704721B1828A42F49B
:1027A0000062828204E0828A4FF2FF731A408282C2
:1027B0007047828A4FF6FB731A408282828A0A43EC
:1027C0008282704721B1828A42F00202828204E052
:1027D000828A4FF6FD731A408282704702460020BB
:1027E000B1F5007F00D100BF13880B400BB1012071
:1027F00000E00020704701F40072B2F5007F00D1C4
:1028000000BFCA430280704770B50246002400230F
:102810000025002040F66A16B14200D100BFC1F386
:10282000421501F01F03012606FA03F3012D02D120
:102830009689334006E0022D02D1168A334001E02A
:10284000968A33400C12012606FA04F416883440A6
:1028500013B10CB1012000E0002070BD10B50022C2
:10286000002340F66A14A14200D100BF0A120124DD
:102870009440A3B2DC43048010BD00000038014046
:102880000044004000480040004C00400050004020
:1028900010B50446FE48844209D101214806FFF7DD
:1028A00014FC00214FF00070FFF70FFC08E001213D
:1028B0008806FFF70AFC00214FF08060FFF705FC57
:1028C00010BD30B5024600200023146824F0020435
:1028D0001460146844F00104146000E05B1C546848
:1028E00004F001041CB94FF6FF74A342F6D15468FA
:1028F00004F001040CB900206CE08C79012C04D1A7
:10290000146844F08004146003E0146824F0800428
:102910001460CC79012C04D1146844F04004146094
:1029200003E0146824F0400414600C7A012C04D1F4
:10293000146844F02004146003E0146824F02004B8
:1029400014604C7A012C04D1146844F01004146013
:1029500003E0146824F0100414608C7A012C04D174
:10296000146844F00804146003E0146824F00804B8
:102970001460CC7A012C04D1146844F0040414606F
:1029800003E0146824F0040414608C78A407CD7864
:1029900044EA05640D7944EA05444D7944EA055456
:1029A0000D886D1E2C43D461146824F0010414605A
:1029B000002300E05B1C546804F001041CB14FF6D6
:1029C000FF74A342F6D1546804F001040CB1002056
:1029D00000E0012030BD10B50021837A012202FA07
:1029E00003F1AC4A126842F00102AA4B1A60A94AEC
:1029F0001C3212688A43A74B1C331A60027BCAB987
:102A0000A44A0C3212688A43A24B0C331A604288E3
:102A1000C38842EA03439F4A4032847A42F8343002
:102A20000288838842EA03439A4A4032847A02EB5E
:102A3000C4025360027B012A19D1964A0C321268F3
:102A40000A43944B0C331A604288038842EA0343DA
:102A5000904A4032847A42F83430C288838842EA0D
:102A600003438C4A4032847A02EBC4025360C27A38
:102A70003AB9884A121D12688A43864B1B1D1A6098
:102A800006E0844A121D12680A43824B1B1D1A601D
:102A9000028932B97F4A143212688A437D4B14335B
:102AA0001A600289012A06D17A4A143212680A434E
:102AB000784B14331A60427B012A06D1754A1C32C6
:102AC00012680A43734B1C331A60724A126822F070
:102AD0000102704B1A6010BD00218171C171017239
:102AE00041728172C1728170C17003210171022132
:102AF00041710121018070476649096841F0010177
:102B0000644A11601146096843F60E729143614AA6
:102B100011601146096841EA0021116011460968F7
:102B200021F001011160704721B1026842F4803246
:102B3000026003E0026822F4803202607047E1B173
:102B4000026842F0800202604FF4C272125842F4EE
:102B500080734FF4C27213504FF4CA72125842F489
:102B600080734FF4CA7213504FF4D272125842F469
:102B700080734FF4D27213501BE0026822F080027F
:102B800002604FF4C272125822F480734FF4C27282
:102B900013504FF4CA72125822F480734FF4CA7261
:102BA00013504FF4D272125822F480734FF4D27241
:102BB0001350704710B502460020936803F08063FD
:102BC000B3F1806F00D110E0936803F00063B3F1BC
:102BD000006F01D1012008E0936803F08053B3F146
:102BE000805F01D1022000E00420042879D002F5A2
:102BF000C07303EB00131B6803F0010402F5C073FC
:102C000003EB00131C600B7A7BB94B7A0C8843EA08
:102C1000445302F5C07404EB00142468234302F506
:102C2000C07404EB0014236010E00B7A4C6843EA94
:102C3000C4034C7A234302F5C07404EB00142468E7
:102C4000234302F5C07404EB001423608B7A03F075
:102C50000F038B7202F5C07303EB00135B6823F064
:102C60000F0402F5C07303EB00135C6002F5C07340
:102C700003EB00135B688C7A234302F5C07404EB0A
:102C8000001463608B7B1C064B7B44EA034403E027
:102C900000640040006600400B7B44EA0323CC7ACA
:102CA000234302F5C07404EB0014A3608B7C1C0664
:102CB0004B7C44EA03440B7C44EA0323CC7B234350
:102CC00002F5C07404EB0014E36002F5C07303EB7B
:102CD00000131B6843F0010402F5C07303EB0013FB
:102CE0001C6010BD10B50246002321B1012907D098
:102CF00002290FD109E09068F94C00EA04030BE0C7
:102D00009068F84C00EA040306E09068F64C00EA8C
:102D1000040301E0002300BF00BFF44C181BA342D2
:102D200016D007DC83B16FF08060184470B10228C0
:102D300018D111E0B0F5007F10D0ED4C204448B11F
:102D4000B0F5003F0ED10BE002230DE000230BE0B5
:102D5000002309E0002307E0012305E0012303E04D
:102D6000012301E0002300BF00BFD8B210BD21B194
:102D7000012907D002290FD109E0826842F08002C0
:102D800082600AE0826842F40042826005E0826864
:102D900042F40002826000E000BF00BF704710B53F
:102DA00000F5D87303EB01131B6803F004031372DF
:102DB000137A53B900F5D87303EB01131B6840F283
:102DC000FF7404EA5353136009E000F5D87303EB72
:102DD00001131B686FF0604404EAD303536000F5ED
:102DE000D87303EB01131B6803F00203537200F561
:102DF000D87303EB01135B6803F00F03937200F5C4
:102E0000D87303EB01135B681B0AD37400F5D87306
:102E100003EB01139B68D37200F5D87303EB011326
:102E20009B681C0A147300F5D87303EB01139B68AD
:102E30001C0C547300F5D87303EB01139B681B0E35
:102E4000937300F5D87303EB0113DB68D37300F5BC
:102E5000D87303EB0113DB681C0A147400F5D873F4
:102E600003EB0113DB681C0C547400F5D87303EBFF
:102E70000113DB681B0E937421B9C36843F0200370
:102E8000C36003E0036943F02003036110BD21B96F
:102E9000C26842F02002C26003E0026942F02002F0
:102EA000026170470246002019B9D36803F003009D
:102EB00006E0012903D1136903F0030000E00020BC
:102EC000704710B502460B4600204FF6FF71BBB9A4
:102ED000146824F0020444F00104146000E0491E68
:102EE000546804F00304012C01D00029F7D1546880
:102EF00004F00304012C01D0002032E0012030E076
:102F0000012B13D1146824F00304146000E0491E5F
:102F1000546804F003040CB10029F8D1546804F09B
:102F200003040CB100201CE001201AE0022B17D191
:102F3000146824F0010444F00204146000E0491E07
:102F4000546804F00304022C01D00029F7D154681E
:102F500004F00304022C01D0002002E0012000E074
:102F6000002010BD014600200A6822F0010242F054
:102F700002020A604A6802F00302022A00D101201C
:102F8000704701464FF6FF7200200B6823F00203E2
:102F90000B6000E0521E4B6803F00203022B01D1CC
:102FA000002AF7D14B6803F00203022B00D0012066
:102FB0007047014600208A6902F0700070470146A0
:102FC00000208A69100E7047014600208A69C2F30A
:102FD000074070471AB143690B43436102E04369FC
:102FE0008B434361704710B50246002001F4700323
:102FF00043B19369C1F3130423400BB101202DE0C9
:1030000000202BE001F0807343B15368C1F3130437
:1030100023400BB1012021E000201FE001F00063FC
:1030200043B19368C1F3130423400BB1012015E0B1
:10303000002013E001F0007343B1D368C1F313041F
:1030400023400BB1012009E0002007E01369C1F320
:10305000130423400BB1012000E0002010BD00222A
:10306000244B994202D10023836111E0C1F3130282
:1030700001F000730BB1C2600AE001F080630BB194
:10308000026105E001F000630BB1826000E0426084
:1030900070470246002002EA01030BB1012000E064
:1030A0000020704770B504460D4600266069284030
:1030B000002872D0B5F5807F69D01DDC082D42D084
:1030C00006DC012D2DD0022D31D0042D7FD134E02E
:1030D000102D3ED0202D42D0402D78D145E000006B
:1030E00003000004000300080000031000010008B2
:1030F0000001FFF77000F030B5F5004F61D009DC3A
:10310000B5F5007F4AD0B5F5806F4DD0B5F5006FAD
:103110005DD150E0B5F5803F2DD0B5F5003F56D1DB
:103120002FE0A0685549FFF7B4FF064651E0E0687C
:103130000321FFF7AEFF06464BE0E0680821FFF7EA
:10314000A8FF064645E0E0681021FFF7A2FF06460B
:103150003FE020690321FFF79CFF064639E0206924
:103160000821FFF796FF064633E020691021FFF79C
:1031700090FF06462DE060680821FFF78AFF0646AB
:1031800027E060681021FFF784FF064621E0A06970
:103190000121FFF77EFF06461BE01BE0A06902212C
:1031A000FFF777FF064614E0A0690421FFF771FFDF
:1031B00006460EE00BE0A0697021FFF76AFF0646A5
:1031C00007E060680421FFF764FF064601E000267F
:1031D00000BF00E00026304670BDB1F5007F3AD058
:1031E0000FDC202928D006DC01291CD004291DD0A1
:1031F000082940D11DE0402921D0B1F5807F3AD186
:1032000026E0B1F5004F31D006DCB1F5806F25D056
:10321000B1F5006F2FD124E0B1F5803F12D0B1F5A8
:10322000003F28D111E0154A826025E00822C260E3
:1032300022E01022C2601FE0082202611CE010227E
:10324000026119E00822426016E01022426013E099
:103250000422426010E0042242600DE00422426039
:103260000AE0002282610422426005E000228261BD
:103270000422426000E000BF00BF7047010101006E
:1032800010B50446FE48844208D10121C014FEF75F
:103290000FFF0021E014FEF70BFFC4E0B4F1804FF4
:1032A00008D101210846FEF710FF00210120FEF79A
:1032B0000CFFB8E0F348844208D101210220FEF758
:1032C00004FF00210220FEF700FFACE0EE4884423C
:1032D00008D101210420FEF7F8FE00210420FEF7AA
:1032E000F4FEA0E0E948844208D101210820FEF75D
:1032F000ECFE00210820FEF7E8FE94E0E44884425A
:1033000008D101211020FEF7E0FE00211020FEF779
:10331000DCFE88E0DF48844208D101212020FEF74E
:10332000D4FE00212020FEF7D0FE7CE0DA48844263
:1033300008D101214014FEF7BBFE00216014FEF706
:10334000B7FE70E0D548844209D10121C804FEF7D8
:10335000AFFE00214FF40020FEF7AAFE63E0D04844
:10336000844209D101210805FEF7A2FE00214FF495
:103370008010FEF79DFE56E0CA48844209D1012123
:103380004805FEF795FE00214FF40010FEF790FE71
:1033900049E0C548844208D101214020FEF795FE4E
:1033A00000214020FEF791FE3DE0C048844208D154
:1033B00001218020FEF789FE00218020FEF785FE96
:1033C00031E0BB48844208D101218015FEF77DFE23
:1033D0000021A015FEF779FE25E0B648844209D108
:1033E00001210804FEF764FE00214FF48030FEF74F
:1033F0005FFE18E0B048844209D101214804FEF77D
:1034000057FE00214FF40030FEF752FE0BE0AB48B0
:10341000844208D101218804FEF74AFE00214FF4BE
:103420008020FEF745FE10BD00220288944B984292
:103430000ED0994B98420BD0B0F1804F08D0914BF1
:10344000984205D0904B984202D0904B984204D1BC
:103450004FF68F731A404B881A438D4B984207D012
:103460008C4B984204D04FF6FF431A40CB881A4346
:1034700002808B8883850B880385814B98420BD013
:10348000854B984208D08B4B984205D08A4B984286
:1034900002D08A4B984201D10B7A038601238382A2
:1034A000704770B5002400220023058C4FF6FE768D
:1034B00035400584028C8388048B4FF68F752C4031
:1034C000B51E2C400D882C43751E2A400D892A43B9
:1034D0004D882A436A4DA8420BD06F4DA84208D0B0
:1034E000744DA84205D0744DA84202D0734DA84235
:1034F00013D14FF6F7752A404D892A434FF6FB75D5
:103500002A408D882A434FF6FF652B404FF6FF5522
:103510002B408D892B43CD892B4383800483CD8819
:103520008586028470BD70B5002400220023058CBE
:103530004FF6EF7635400584028C8388048B48F67D
:10354000FF752C404FF6FF452C400D884FF6FF7657
:1035500006EA05252C434FF6DF752A400D8906EA59
:1035600005152A434D8806EA05152A43444DA8420D
:1035700002D0494DA8421DD14FF67F752A404D8992
:103580004FF6FF7606EA05152A434FF6BF752A4027
:103590008D8806EA05152A434FF6FF352B404FF27A
:1035A000FF752B408D8906EA85052B43CD8906EAF8
:1035B00085052B4383800483CD880587028470BDF5
:1035C00070B5002400220023058C4FF6FF663540BD
:1035D0000584028C8388848B4FF68F752C404FF6C0
:1035E000FC752C400D882C434FF6FF552A400D8961
:1035F0004FF6FF7606EA05252A434D8806EA05259B
:103600002A431F4DA84202D0234DA8421DD14FF29C
:10361000FF752A404D894FF6FF7606EA05252A43B5
:103620004FF6FF352A408D8806EA05252A434EF6D7
:10363000FF752B404DF6FF752B408D8906EA051569
:103640002B43CD8906EA05152B4383808483CD88DF
:103650008587028470BD70B5002200230024058C8C
:103660004EF6FF7635400584038C8488828B48F6BD
:10367000FF752A404FF6FF452A400D8820E00000E4
:10368000002C01400004004000080040000C0040F5
:10369000001000400014004000340140004C014084
:1036A000005001400054014000180040001C004040
:1036B000002000400040014000440140004801401B
:1036C0004FF6FF7606EA05252A434DF6FF752B4097
:1036D0000D8906EA05352B434D8806EA05352B434F
:1036E000FA4DA84202D0FA4DA84208D14BF6FF7518
:1036F0002C408D894FF6FF7606EA85152C43848091
:103700008283CD88A0F84050038470BD828B4FF235
:10371000FF331A408283828B4FF6FF7303EA012343
:103720001A4382837047F0B50C46154600220021EB
:103730000026078C4EF6FF7C07EA0C070784828B75
:10374000018C4FF6FF7707EA043640F6FF473A4010
:103750004FF6FF7707EA05273A434FF6FF7707EA68
:1037600003373A43D94FB8420ED0D94FB8420BD0A5
:10377000B0F1804F08D0D74FB84205D0D64FB842ED
:1037800002D0D64FB84206D14DF6FF77394046F405
:103790008057394305E047F6FF57394044F48057D6
:1037A000394382830184F0BD828B4FF6F3731A4054
:1037B0008283828B0A4382837047F0B50C4615469C
:1037C000002200210026078C4FF6FF6C07EA0C0749
:1037D0000784828B018C4FF6FF7707EA04264FF6A9
:1037E0000C773A404FF6FF7707EA03172F433A4327
:1037F000B64FB8420ED0B64FB8420BD0B0F1804FA2
:1038000008D0B44FB84205D0B34FB84202D0B34F3E
:10381000B84206D14FF6FF57394046F48077394316
:1038200005E04FF2FF57394044F4807739438283F3
:103830000184F0BD028B4FF2FF331A400283028BEA
:103840004FF6FF7303EA01231A4302837047F0B572
:103850000C461546002200210026078C4FF6EF7C0F
:1038600007EA0C070784028B018C4FF6FF7707EA03
:10387000041640F6FF473A404FF6FF7707EA033752
:103880003A434FF6FF7707EA05273A438F4FB8428E
:103890000ED08F4FB8420BD0B0F1804F08D08D4F73
:1038A000B84205D08C4FB84202D08C4FB84206D1F6
:1038B0004FF6DF77394046F01007394305E04FF601
:1038C0005F77394044F01007394302830184F0BD2B
:1038D000028B4FF6F3731A400283028B0A43028372
:1038E0007047F0B50C46154600220021068C4FF6B5
:1038F000FE773E400684028B018C4FF60C763240F8
:103900007E1C06EA03162E433243704EB0420ED0A0
:103910006F4EB0420BD0B0F1804F08D06D4EB04228
:1039200005D06D4EB04202D06C4EB04206D14FF67B
:10393000FD76314044F00106314305E04FF6F5765F
:10394000314044F00106314302830184F0BD70B57B
:1039500005460C465D4885420ED05D4885420BD039
:10396000B5F1804F08D05B48854205D05A48854262
:1039700002D05A48854200D100E000BF208850B9EB
:103980002389A28861882846FFF7ABFFE188284693
:10399000FFF79EFF25E0208804280AD12389A2880A
:1039A00061882846FFF753FFE1882846FFF742FF6A
:1039B00017E0208808280AD12389A2886188284630
:1039C000FFF7FBFEE1882846FFF7EEFE09E02389BA
:1039D000A28861882846FFF7A6FEE1882846FFF7FF
:1039E00095FE70BD2DE9F04105460C4600260127E5
:1039F000608808B9022600E00026A088012801D1CD
:103A0000022700E001272088A0B92389A2886188C5
:103A10002846FFF766FFE1882846FFF759FF23890C
:103A20003A4631462846FFF712FFE1882846FFF75D
:103A300001FF13E02389A28861882846FFF707FF6A
:103A4000E1882846FFF7F6FE23893A4631462846A4
:103A5000FFF747FFE1882846FFF73AFFBDE8F0810E
:103A60000A884B881A438B881A43CB881A430B89E0
:103A70001A434B891A438B891A43A0F84420704794
:103A80004FF6FF71818000210180C1804180017269
:103A900070470021018041808180C1800181418186
:103AA0008181C18170470021018041800121818095
:103AB0000021C18001817047002101804180818007
:103AC000C18001814181818170470000002C01404B
:103AD000003401400004004000080040000C004099
:103AE00021B1028842F00102028004E002884FF610
:103AF000FE731A400280704731B1B0F8442042F49E
:103B00000042A0F8442005E0B0F84420C2F30E02C1
:103B1000A0F8442070471AB183890B43838102E0E7
:103B200083898B43838170478182704741EA020316
:103B3000A0F8483070471AB183890B43838102E0B3
:103B400083898B438381704701894FF6F872114056
:103B5000018170470A46002101894FF68F73194091
:103B600011430181704730B504460D462946204671
:103B7000FFF7F0FF208940F00700208130BD2DE9DC
:103B8000F04104460D4616461F46602D06D13B46C1
:103B9000012231462046FFF75AFE05E03B4601224E
:103BA00031462046FFF79DFE29462046FFF7D2FF0B
:103BB000208940F007002081BDE8F08130B50C4637
:103BC00000210189C9B24FF6FF7505EA03251543A7
:103BD00025432943018130BD2DE9F04105460E46BC
:103BE00017469846002443463A4631462846FFF792
:103BF000E5FF2C894FF6F870044044F007044FF6B7
:103C00008F70044044F070042C81BDE8F081F0B561
:103C100004460D4616461F463B4632462946204678
:103C2000FFF7CCFF208940F480402081F0BD018562
:103C3000828270470A46002101884FF68F7319402F
:103C4000114301807047F0B50C4615461E46002111
:103C5000002200230189028B038C4FF6F87739404C
:103C600021434FF6FC473A4040F201173A434FF6E2
:103C7000DD773B404FF6FF7707EA06172F433B43BC
:103C8000018102830384F0BD0A460021018B4FF6B7
:103C90008F7319401143018370470A460021018B3D
:103CA00048F6FF7319404FF6FF7303EA02231943E6
:103CB000018370470A460021818B4FF68F731940AC
:103CC0001143818370470A460021818B48F6FF73B8
:103CD00019404FF6FF7303EA0223194381837047AB
:103CE00021B1028842F08002028004E002884FF68F
:103CF0007F731A400280704721B1828842F004022B
:103D0000828004E082884FF6FB731A4082807047FD
:103D100021B1828842F00802828004E082884FF656
:103D2000F7731A408280704721B1828842F0010205
:103D3000828004E082884FF6FE731A4082807047CA
:103D40000A460021018B4FF6F77319401143018396
:103D500070470A460021018B4FF2FF7319404FF65E
:103D6000FF7303EA02231943018370470A460021C7
:103D7000818B4FF6F77319401143818370470A46D0
:103D80000021818B4FF2FF7319404FF6FF7303EA56
:103D900002231943818370470A460021018B4FF6A5
:103DA000FB7319401143018370470A460021018BC0
:103DB0004FF6FF3319404FF6FF7303EA022319430E
:103DC000018370470A460021818B4FF6FB7319402F
:103DD0001143818370470A460021818B4FF6FF33E0
:103DE00019404FF6FF7303EA02231943818370479A
:103DF0000A460021018B4FF67F731940114301835E
:103E000070470A460021018BC1F30E014FF6FF7384
:103E100003EA02231943018370470A460021818B7C
:103E20004FF67F7319401143818370470A46002182
:103E3000818BC1F30E014FF6FF7303EA022319438E
:103E4000818370470A460021018C4FF6FD731940AB
:103E50001143018470470A460021018C4FF6F77325
:103E600019401143018470470A460021018C4FF626
:103E7000DF7319404FF6FF7303EA021319430184FD
:103E800070470A460021018C4FF67F7319404FF6A8
:103E9000FF7303EA02131943018470470A460021A5
:103EA000018C4FF6FF5319404FF6FF7303EA0223CC
:103EB0001943018470470A460021018C4FF2FF73B9
:103EC00019404FF6FF7303EA022319430184704738
:103ED0000A460021018C4DF6FF7319404FF6FF731F
:103EE00003EA023319430184704730B500230124EB
:103EF0008C40A3B2048C9C430484048C02FA01F528
:103F0000ADB22C43048430BD30B5002304248C4072
:103F1000A3B2048C9C430484048C02FA01F5ADB274
:103F20002C43048430BD70B503460020002418469D
:103F3000183001258D40ACB21D8CA5431D8409B1FC
:103F4000082909D100EB6100056825F070050560BE
:103F50000568154305600EE00D1FC5F34E052844A6
:103F6000056825F4E045056005684FF6FF7606EA2A
:103F700002263543056070BD21B1028842F002027D
:103F8000028004E002884FF6FD731A4002807047F9
:103F900021B1028842F00402028004E002884FF658
:103FA000FB731A400280704721B1828842F0800280
:103FB000828004E082884FF67F731A4082807047C7
:103FC00002884FF6F7731A40028002880A43028083
:103FD000704782884FF68F731A40828082880A4326
:103FE0008280704702894FF6F8731A400281028975
:103FF0000A430281704702894FF67F731A4002819B
:1040000002890A4302817047818470478185704725
:10401000818670470187704781877047A0F84010FC
:10402000704702884FF6FF431A40028002880A4315
:10403000028070470146888E70470146088F70479E
:104040000146888F70470146B1F84000704701462D
:10405000888C70470146088D704702460020138AFD
:104060000B400BB1012000E000207047CA430282E0
:10407000704730B50246002000230024158A05EA67
:104080000103958905EA010413B10CB1012000E098
:10409000002030BDCA43028270470000002044491E
:1040A0000860091D0860091D0860091D0860414875
:1040B0003F4914310860704700213D498279002A48
:1040C0003AD00A46126803689A430B461A600A1DE2
:1040D000126803689A430B1D1A60027911440A683A
:1040E00003681A430A60324A0832126803689A4326
:1040F0002F4B08331A601A1D126803689A432C4B21
:104100000C331A604279102A0ED11A1F1268036804
:104110001A43274B08331A601A1D126803681A43A2
:10412000234B0C331A600DE02149427911440A688F
:1041300003681A430A6005E0027911440A680368BB
:104140009A430A6070470021016001710C2141719E
:104150000021817170471649103109680143144AE2
:1041600010321160704701460020114A1432126863
:104170000A400AB1012000E0002070470C491431C8
:1041800008607047014600200022094B1B6803EAC3
:104190000102074B14331B680B4013B10AB1012015
:1041A00000E00020704702491431086070470000A9
:1041B00000040140FFFF0F000CB5002001900090AB
:1041C0004748006840F480304549086000BF4448D3
:1041D000006800F4003000900198401C01900098A5
:1041E00018B90198B0F5A06FF1D13D48006800F40E
:1041F000003010B10120009001E0002000900098F4
:10420000012844D13748006840F010003549086063
:104210000846006820F0030008600846006840F087
:10422000020008602E4840682D49486008464068F2
:1042300048600846406840F480604860084640682E
:1042400020F47C1048600846406840F4E81048605C
:104250000846006840F08070086000BF2048006891
:1042600000F000700028F9D01D48406820F00300DD
:104270001B4948600846406840F00200486000BFA3
:104280001748406800F00C000828F9D101E000BF91
:10429000FEE70CBD10B5FFF78FFF10BD10B510483D
:1042A000006840F001000E490860084640680E4969
:1042B00008400B494860084600680C490840084916
:1042C00008600846006820F48020086008464068BE
:1042D00020F4FE00486000208860FFF7DBFF10BD7F
:1042E00000100240002002400000FFF8FFFFF6FE31
:1042F000704700000FB4044910B503AA029800F0FB
:1043000011FA10BC5DF814FBF40300200FB41CB5C7
:10431000074B06AA7B4469460090059800F0E9F92E
:104320000020694600F0F8F91CBC5DF814FB0000A1
:104330000104000070B5044685690068C10601D516
:10434000302600E02026C00707D070BDD4E9012147
:1043500030469047206A401C20626D1EF6D570BD25
:1043600070B5044685690078C00707D170BDD4E9EF
:10437000012120209047206A401C20626D1EF6D546
:1043800070BD00002DE9F041064600241068752933
:10439000314616A510D0AFF30080002802DA404263
:1043A00013A507E031688A0701D512A502E0490785
:1043B00004D511A5012401E0AFF3008000210A22F9
:1043C00006F1240709E0B0FBF2FCB0FBF2F302FBBC
:1043D0001C00303078541846491C0028F3D123467D
:1043E0002A463046BDE8F04100F025B90000000043
:1043F0002D0000002B0000002000000070B50446D6
:104400000D4621461068AFF300802188090502D5CA
:104410000F4A7A4402E00E4A7A440E32002104F137
:10442000240305E000F00F060009965D5E54491C68
:104430000028F7D120780023000704D5702D02D082
:1044400009B1022311322046BDE8704000F0F3B8F4
:10445000B81A00002DE9F05F894604464FF0000AC3
:10446000DFF824B1FB44C0F820A02046E16888476B
:1044700000287DD0252806D0D4E901219047206A64
:10448000401C2062F1E700255F462046E16888472E
:104490002028064607DB312E05D2B81910F8200C6B
:1044A00008B10543F1E7A80701D525F00405C4F8D4
:1044B0001CA00027C4F818A02A2E09D0304600F00E
:1044C000B1FC38B304EB8708303EC8F8186019E037
:1044D00059F8041B204604EB87029161E168884784
:1044E000012F064618D1E069002820DA25F02005C2
:1044F0001DE0D8F8180000EB800006EB40003038D3
:10450000C8F818002046E1688847064600F08AFC93
:104510000028EED1012F0AD02E2E08D12046E168C6
:1045200088477F1C0646022F45F02005C4DBA069A2
:10453000002803DA404245F00105A061E80701D0F8
:1045400025F01005A6B1A6F14100192802D82036A1
:1045500045F400654A463146204625604D46FBF746
:1045600051FE60B1012807D0ED1D25F0070000E0E5
:1045700007E000F1080978E705F1040975E730461E
:104580007AE7206ABDE8F09F8E1A000010B5431C40
:1045900002E010F8011B71B18107FAD14FF001322E
:1045A00002C88C1A8C4314EAC211F9D0C01A0A0648
:1045B00003D0C01E10BDC01A10BD0A0401D0801E59
:1045C00010BD0902FCD0401E10BD4FF0000200B526
:1045D000134694469646203922BFA0E80C50A0E826
:1045E0000C50B1F12001BFF4F7AF090728BFA0E8D4
:1045F0000C5048BF0CC05DF804EB890028BF40F8A0
:10460000042B08BF704748BF20F8022B11F0804FE1
:1046100018BF00F8012B704770477047704770470C
:1046200010B500F091F8006810BD10B5044600F018
:104630008BF8046010BD2DE9F0470D46994692466F
:10464000044600F124080168880604D5E06921F0D9
:104650001001216000E00120A84201DD471B00E0BD
:104660000027A1697A1902EB0900081AA0612078D5
:10467000C00602D42046FFF75DFE002608E0D4E91C
:1046800001211AF806009047206A401C761C20621F
:104690004E45F4DB2078C0060AD52046FFF74AFED7
:1046A00006E0D4E9012130209047206A401C2062B6
:1046B000381EA7F10107F4DC07E0D4E9012118F85E
:1046C00005009047206A401C2062281EA5F10105C4
:1046D000F3DC2046FFF744FE2078000602D50220D6
:1046E000BDE8F0870120FBE701694A1C02610878F8
:1046F000704700B58FB0CDE9013100210591054922
:104700007944CDE9031011466846FFF7A3FE0FB0C8
:1047100000BD0000E5FFFFFF0A6802F8010B0A6018
:1047200070470000074B70B50D467B44FFF7E1FF73
:104730000446284600F00CF810B14FF0FF3070BD71
:10474000204670BDB1C3FFFF00487047A40400209D
:10475000007B00F08000704700487047A4040020F0
:104760007546FFF7F9FFAE4605006946534620F04F
:104770000700854618B020B5FBF770FDBDE8204066
:104780004FF000064FF000074FF000084FF0000B0D
:1047900021F00701AC46ACE8C009ACE8C009ACE8C0
:1047A000C009ACE8C0098D46704710B50446AFF3A8
:1047B00000802046BDE81040FBF739BD490050EAB3
:1047C000C12018BF04204A0D18BF40F0010040F27C
:1047D000FF72B2EB515F08BF40F00200012808BF32
:1047E000052070472DE9F74F144694B00021C4E925
:1047F00002111599079121F00045C9498D4206DC47
:104800001599C4E9000117B00020BDE8F08FC54933
:10481000DFF814A3A9423CDD0799C44E0029C44F18
:10482000C44A1599534619DD00F040FF554506D09E
:10483000C14AC24B00F03AFFC4E900010AE04FF060
:10484000D352BE4B00F032FF32463B4600F02EFF03
:10485000C4E9000117B00120BDE8F08F00F0BAFBF9
:10486000554506D0B44AB54B00F0B4FBC4E900018D
:104870000AE04FF0D352B14B00F0ACFB32463B465E
:1048800000F0A8FBC4E9000117B04FF0FF30BDE80D
:10489000F08FAB49A942159978DB21F0004183469E
:1048A0008846A84AA84B00F0F7FD0022A74B00F06D
:1048B00091FB00F097FD099000F0C3FD06460F46FE
:1048C0009C4A534600F0E8FD43465A4600F0E2FE9B
:1048D00080468A46984A994B3046394600F0DCFDBE
:1048E0002A0D01250B924246534600F0D3FE032DBC
:1048F000C4E9000139D00B98C1F30A51401A05EB05
:1049000045111139814230DA9148C346784400EBB1
:104910000510CDF80CA00C90D0E9002330463946A4
:1049200000F0BAFD02460B460491069058460399E2
:1049300000F0BCFE80468A4602460B465846039964
:1049400000F0B4FE049B069A00F0B0FE83460C987B
:1049500003913946D0E90223304600F09DFD5A46C6
:10496000039B00F0A3FE6D1CBDE707980028A2BFC3
:10497000099817B0BDE8F08F616881F0004161606F
:10498000099817B04042BDE8F08FFFE784461598BC
:10499000C1F31301C0F30A50A0F2F5304FEA6018DA
:1049A00000F01F06C6F1200013900020069007902B
:1049B00041F4801E05206D4676B1664A08EB000181
:1049C0007A4452F8213002EB8101B3404A681399CE
:1049D00022FA01F1194305E05F4908EB000279442E
:1049E00051F82210A1FB0E27A1FB0C131A449A4286
:1049F00034BF0123002303EB070A05EB8003D3E94F
:104A000001B70F448F4234BF0121002193448B44EE
:104A100011B1934502D903E0934501D2012100E091
:104A20000021C3E901B7514445F82010011EA0F14F
:104A30000100C1DC0298059F00F10050800F129028
:104A40000298DDE90356800000F0FBFC834628460F
:104A50000D9100F00DFD6FF01D0201F0F0F9CDE9B0
:104A60000E01304600F004FD6FF03D0201F0E7F961
:104A700080468A46384600F0FBFC6FF05D0201F08C
:104A8000DEF9074642465346119100F0A3FADDE9EC
:104A90000E2300F09FFA5A460D9B00F09BFA00256A
:104AA0000E465A4628460D9B00F000FEDDE90E2317
:104AB00000F0FCFD4246534600F0F8FD3A46119BDB
:104AC00000F0E8FDDFF898A0244A534600F0E4FC2B
:104AD00007468846234A244B3146284600F0DCFC32
:104AE0003A46434600F076FA074688464FF0A84219
:104AF00053463146284600F0CFFC3A46434600F084
:104B000069FA159A12F0004F04D0129A81F0004110
:104B100052421292C4E90001129817B0BDE8F08F1A
:104B2000FB21E93F7CD90240FB21F93F7370032E42
:104B30008A19A33B000040543163621A61B4D03D2E
:104B4000FB21394183C8C96D305FE43F0000E03F7D
:104B500028160000A415000086150000182D4454E6
:104B6000FB21F93D3326A611460B113C2DE9FF4DE3
:104B700021F0004807460C46B8F1795F08DA00F0EA
:104B800031FC002801BF0020324904B0BDE8F08D9F
:104B90003A4623461046194600F07EFC054602467A
:104BA0002D480E460B460621784400F05DF82A4653
:104BB000334600F071FCDDE9022382468B4638461D
:104BC000214600F069FC04460F4652465B462846E3
:104BD000314600F061FC22463B4600F067FD074687
:104BE0008A464FF0FF322846314601F028F91B4A29
:104BF00090450ADA3A46534600F058FD04B00022C8
:104C0000BDE8F04D134B00F045BD154A4245A8BF25
:104C1000A8F500154FF00004B8BF124D22462B46F0
:104C200000F044FD0646884622462B4600200949EE
:104C300000F03CFD04460D463A4653463046414698
:104C400000F034FD04B022462B46BDE8F04D00F0E4
:104C500021BD00000000F03F5C1300003333D33F60
:104C60000000E93F0000D23F2DE9F0414F1E00EB6C
:104C7000C7010446D1E9000115461E4637F0060279
:104C80000DD02A46334600F007FC7F1E04EBC70315
:104C9000D3E9002300F09EF937F00602F1D1022F8C
:104CA00025D0042F13D0062F18BFBDE8F0812A4667
:104CB000334600F0F1FBD4E90A2300F08BF92A46D1
:104CC000334600F0E9FBD4E9082300F083F92A46D3
:104CD000334600F0E1FBD4E9062300F07BF92A46D5
:104CE000334600F0D9FBD4E9042300F073F92A46D7
:104CF000334600F0D1FBD4E9022300F06BF92A46D9
:104D0000334600F0C9FBD4E90023BDE8F04100F0D0
:104D100061B900002DE9FF4D054621F0004084B047
:104D20000C46B0F1795F0BDA2846FFF747FD0428FF
:104D300008BF00F06FF8284608B02146BDE8F08DA6
:104D40002A460B46104600F0A7FB06460F462A46A9
:104D5000234600F0A1FB804626488A4632463B4661
:104D600005217844FFF780FF83461098029160B3D5
:104D7000214A224B4046514600F08EFBCDE900010E
:104D80005A4640465146029B00F086FB82468846C2
:104D9000DDE906014FF0FF3201F051F8524643467B
:104DA00000F084FC32463B4600F076FBDDE906234A
:104DB00000F07CFCDDE9002300F078FC08B02A4616
:104DC0002346BDE8F04D00F065BC0B465A46304620
:104DD000394600F061FB084A084B00F0FBF84246F8
:104DE000534600F059FB08B02A462346BDE8F04D73
:104DF00000F0F0B89A120000495555555555C5BFF9
:104E0000012201F01CB8002213461046114600F0A2
:104E100091B90000024A0020110701F010B800000B
:104E200001FDFFFF30380A2801D201207047002021
:104E30007047000000B5244B21F0004287B09A4231
:104E4000DCBF0022134629DD204B9A4208D140B92D
:104E50004FF00100FFF7E9FBFFF7D5FF07B000BDFA
:104E600003DBFFF7CDFF07B000BD02AAFFF7BAFCD6
:104E700010F0030104BF0DF1080C9CE80F000DD0E9
:104E8000012001290ED0022914D00DF1080C009048
:104E90009CE80F00FFF73EFF07B000BDFFF766FE7E
:104EA00007B000BD0DF1080C00909CE80F00FFF763
:104EB00031FF05E00DF1080C9CE80F00FFF756FEEE
:104EC00007B081F0004100BDFB21E93F0000F07F09
:104ED00000B5254B21F0004287B09A4203DC002246
:104EE000134600922BE0214B9A4208D140B94FF073
:104EF0000100FFF79AFBFFF786FF07B000BD03DB59
:104F0000FFF77EFF07B000BD02AAFFF76BFC10F0B1
:104F100003014FF001000DD0012914D002291AD04D
:104F20000DF1080C9CE80F00FFF720FE07B081F0A0
:104F3000004100BD0DF1080C00909CE80F00FFF748
:104F4000E9FE07B000BD0DF1080C9CE80F00FFF76B
:104F50000DFE07B000BD0DF1080C00909CE80F009D
:104F6000FFF7D8FEE2E70000FB21E93F0000F07FF9
:104F700021F00042A2F16052B2F5801F01F000431F
:104F800028BFD2F17F6C0BD95FEA001C43EAC20252
:104F900042EB507018BF704728BF20F001007047E7
:104FA000B2F5801FBCBF184670474FEA410C1CF594
:104FB000001F02D2084600F096BE70B500F016FB46
:104FC00000000089FFF7F6BF4FF00040A0F5800019
:104FD0007047000010B591EA030F48BF83F000430B
:104FE00000F16C83841A71EB030C05D2121943EBA8
:104FF0000C03001B61EB0C01DFF824E14FEA1154B4
:10500000A4EB135C1EEA430F18BF9EEA445F73D003
:1050100023EA0E03DCF1200E21EA045143F480134D
:1050200032D322FA0CFE10EB0E0023FA0CFE41EBF9
:105030000E01CCF1200E03FA0EFE10EB0E0051F122
:105040000001B1F5801FCCF1200E32D201EB0451EA
:1050500012FA0EF2BDE8104058BF7047401C38BF2E
:105060005FEA420218BF7047002814BF20F0010019
:1050700041F100014FEA410313F5001F38BF7047AB
:10508000A1F1C04100F000BB012A43EB0302ACF1E7
:10509000200CDCF11F0E32BF4FF0000E23FA0CF390
:1050A00010EB030041EB0451B4EB115FD0D0A1EB46
:1050B000045101F5801149085FEA300001EB045109
:1050C0000ED350F1000038BF12FA0EFE08D1BDE831
:1050D0001040C9E7401C38BF5FEA4202CAD1C3E7AB
:1050E000BDE810404FEA410313F5001F38BF704779
:1050F000A1F1C04100F0C8BA9EEA445F08D011EAAD
:105100005E0FBDE8104004BF01F000410020704771
:10511000BDE8104070B500F069FA00BF64FBBE3E08
:105120000000E0FF02494FF0000000F056BE00BF53
:105130000000F87F2DE9C04130B4DFF8A0C23CEA9E
:10514000111418BF3CEA131400F0EC8081EA030547
:105150001CEA111444EAD57418BF1CEA131500F0B8
:10516000C780A4EB05044FF0004545EAC12145EA9C
:10517000C32341EA505143EA525304F17F749942E8
:1051800004F500344FEAC0204FEAC22208BF904223
:1051900000F09C804FEA13650FF24016765D4FEAEF
:1051A000134506FB05F7C7F1807706FB07F74FEAC3
:1051B000D737A7FB03687642C8F58038A7FB06CE31
:1051C00038BFA8F1010807FB08E64FF0000EA6FB68
:1051D000028CE6FB03CEDCF1000CCEF1004E38BFB2
:1051E000AEF1010EA6FB0C584FF000074FF0000582
:1051F000E6FB0E87A1FB08C6A0FB07CE16EB0E064A
:1052000045F10005E1FB076515F1E04E7EBFA4F511
:1052100080345FEA46066D4116F1800745F10005CE
:105220004FEA17274FEA066647EA0567A6F1DE460A
:10523000B6F1805F4FEA15251FD9384624F0010CDE
:1052400005EBC471BCF1FE6F01EB0C1102D8F0BC90
:10525000BDE8008124425CBF01F5801E9EEAC47F48
:1052600002D4F0BCBDE80081244238D4F0BCA1F1E6
:10527000C041BDE8004100F007BA4FEAD22242EA3D
:1052800043524FEAD323A7FB02864FEAD02040EADD
:10529000415007FB03661EEA0E0F4FEAD12105FBC2
:1052A000026658BFA6EB0056B6EB00564FEA520E08
:1052B0004EEAC37E18EB0E0E56EB530EBDD518EB1F
:1052C00002085E417F1C55F10005B6E74FF48015DA
:1052D0004FF000074FF000064FF00008ADE7F0BCBC
:1052E0004FF0000001F1C04101F00041BDE8008134
:1052F00011EA0C1F0CEA131500D00CE013EA0C1F86
:1053000000F025804FF00000F0BC81EA030101F0BD
:105310000041BDE80081F0BCBDE8004181EA030125
:1053200000F0B2B9F0BCBDE8004170B500F05EF924
:10533000097EFC3E00F007B881EA03014FF000004F
:1053400001F00041704781EA030100F09DB9F0BC13
:10535000BDE800414FF0000021497047FFFDFBF917
:10536000F7F5F4F2F0EEEDEBE9E8E6E4E3E1E0DE98
:10537000DDDBDAD8D7D5D4D3D1D0CFCDCCCBCAC80A
:10538000C7C6C5C4C2C1C0BFBEBDBCBBBAB9B8B731
:10539000B6B5B4B3B2B1B0AFAEADACABAAA9A8A824
:1053A000A7A6A5A4A3A3A2A1A09F9F9E9D9C9C9BF2
:1053B0009A9999989797969595949393929191909D
:1053C0008F8F8E8E8D8C8C8B8B8A8989888887872E
:1053D0008685858484838382828181800000FF07A3
:1053E0000000F87F4FEA41034FEA5353A3F580636F
:1053F000D3F11E03C8BFD3F1210C0CDD4FF00042E6
:1054000042EAC12242EA505232FA03FC8CEAE17CC1
:10541000ACEBE1707047102BC4BF0020704703F560
:10542000787CBCF1FF3F04D06FF0004282EA21009B
:10543000704770B500F0DAF8499224800020704778
:10544000F2E710F0004248BF4042B0FA80F310FA91
:1054500003F10AD0C3F11D0303F580634FEA415005
:1054600002EB035202EBD12170474FF0000070476E
:10547000B0FA80F310FA03F10AD0C3F11D0303F56B
:1054800080634FEA41504FEA035202EBD12170474B
:105490004FF0000070470000DFF848C170B51CEA0B
:1054A000111E1EBF1CEA13159EEA0C0F95EA0C0F85
:1054B00000F06F8081EA030423EA4C134EEAD47EA5
:1054C00021EA4C1141F4801143F48013AE44A1FB56
:1054D000024CA0FB0365AEF17F7E361955EB0C053F
:1054E000A1FB034C4CF10003A0FB021C16EB0C06C5
:1054F000654153F10003094218BF46F0010613F459
:10550000007F0BD14FEA03314FEA0530340341EA03
:10551000155140EA16506FF003020AE04FEAC3212A
:105520004FEAC520F40241EA555140EA56506FF067
:10553000020202EB2E4201EB025585EACE710AD03F
:105540005FEA440C18BF24F0004450F1000041F120
:10555000000120EAD47040F2FE7C624500D270BDAA
:10556000A84214BF4FF080444FF04044002E08BFC3
:105570000024BEF1806FA8BFA1F1C041BDE870401A
:1055800080F282804FF0000001F1C04101F0004143
:1055900070479EEA0C0F0CEA131518BF95EA0C0F22
:1055A00006D04FF0000081EA030E0EF0004170BDFE
:1055B00000F01CF88900013E00F007B800F009B8BF
:1055C0004FEA430C5FEA5C5C08D081EA030100F01B
:1055D0005BB84FEA410C5FEA5C5CF6D14FF000002B
:1055E000014970470000FF070000F87F0EF1020E2E
:1055F0002EF0030E5EF8046B364205D4012A43EB0D
:10560000030515F5001F12D8012841EB010C1CF50C
:10561000001F0CD80ED14FEAD17C15F5001F0CEB02
:105620004C0C0CF1020C08BF4CEBD37C04E04FF0A7
:10563000080C01E04FEAD37C0CEB4C0526FA05F68A
:1056400006F00706B6F1040C06D20EEB860CBDE898
:1056500070404CF0010C6047DFE80CF0090B0202CF
:105660004FF000414FF00000A1F5002170BD194638
:105670001046012851EB010418BFD4F5001484BF73
:10568000002001F0004170BD0808A0F500114FEAAC
:105690003101704791EA030F10B581F000413FF5E9
:1056A000A1AC83F0004300F009B8000010B591EA06
:1056B000030F48BF83F000433FF594AC841A71EBAD
:1056C000030C07D212198CF0004C43EB0C03001BA7
:1056D00061EB0C01DFF8A4E14FEA1154A4EB135C79
:1056E0001EEA430F18BF9EEA445F00F0B08023EA31
:1056F0006E03524221EA0451C3EB6E0338BF5B1EB6
:10570000DCF1200E25D322FA0CFE10EB0E0043FA3A
:105710000CFE41EB0E01CCF1200E03FA0EFE10EB55
:105720000E0051F10001CCF1200E29D412FA0EF234
:1057300001EB0451BDE8104058BF7047401C1CBF2E
:10574000B2F1004F704700280CBF491C20F0010047
:10575000704712EB020E43EB030218BF4FF0010E2D
:105760004EEA4202ACF1200CDCF11E0E54D943FA91
:105770000CFE10EB0E0051F1FF31CCF11E0ED5D511
:105780000EF1010E12FA0EFE404141EB010101EB58
:10579000445C5FEA5C5C10D910EBDE7001EB0451F5
:1057A00038BFBEF1004FBDE8104018BF7047002859
:1057B0000CBF491C20F00100704730D24FEAD42CB6
:1057C00011F5001124F400641BD0B1FA81F20B3AF8
:1057D000A41AA41ED2F12003914030FA03F3194316
:1057E000904001EBCC71002C01EB0451BDE810405E
:1057F000A8BF704701F1C0414FF0000001F0004127
:105800007047B0FA80F310FA03F100D110BDE41A2A
:10581000173C4805C90AE4E701EB045110BD4910E3
:1058200001EB0451BDE810404FEA300002E04FF0B8
:10583000000170474A0008BF0042F8D0B2F5001FCF
:1058400028BF704701F000414FF0000070479EEA0A
:10585000445F07D011EA5E0FBDE8104004BF00218D
:1058600000207047BDE8104070B5FFF7BFFE00BFD5
:1058700040DFF63E83F00041104670470000E0FF35
:1058800043004FEAD30C4FEA3C0C43401FBF400794
:105890000CF1605113F0FE4F70471CF0006F03D104
:1058A00000200CF0004170470CF0004343EA5070B8
:1058B00010B540EACC0000F0D0F900BF0000009223
:1058C0004FEA0001FFF7E0BE4FF000414FF000004B
:1058D000A1F500217047000090EA010F48BF81F058
:1058E000004100F10C82421A3CBF801A89184FEA2D
:1058F000D0524FF07F4C1CEA410FA2EBD15318BF9E
:105900009CEA026F00F03B804FF0004C4CEA002014
:105910004CEA012121FA03FC10EB0C0C1ED202F11F
:10592000FF325FEA1C2040EBC25038BF70471CF0CA
:105930007F0F4FEA400C18BFBCF17F4F38BF704754
:10594000C3F12003994008BF20F00100BCF17F4F54
:1059500038BF7047A0F1C04000F0C5B94FEA3C0025
:10596000000A40EBC25028BF1CF0FF0F4FEA400C6A
:10597000E6D018BFBCF17F4F38BF7047EAE79CEA1A
:10598000026F05D010EA5C0F08BF00F000407047BE
:1059900010B500F062F900BF64FBBE3E4FF47F0C0F
:1059A0001CEAD0121EBF1CEAD11392EA0C0F93EA34
:1059B0000C0F00F0858090EA010F48BF42F480721E
:1059C00040F4000C41F400002CF07F4120F07F40B7
:1059D00000B58142A2EB03020FF2081CACEB504E63
:1059E000C0F100009EF800E04FEA4E0E00FB0EFCF6
:1059F00038BF49004FEA2C1C02F5FA020CFB0EF3EB
:105A00004FEACE1E4FEA112C4FEAC1210EEB635E26
:105A100042EB22420EFB0CFC4FEA1C5300FB03112D
:105A20004FEA112C4FEA01310EFB0CFC4FEADC4C23
:105A300000FB0C11C14228BF09184CEB03335DF881
:105A400004EB10EB410143EBC250B2F57C0F38BFC1
:105A5000704729D512F0F00F1CBF00F1C04000F0D4
:105A600000407047008182838485868788898B8C7B
:105A70008D8E8F919293959697999A9C9D9FA0A2B7
:105A8000A3A5A7A8AAACAEB0B2B3B5B7B9BCBEC007
:105A9000C2C5C7C9CCCED1D4D7D9DCDFE2E6E9ECA8
:105AA000F0F3F7FAFE0000004FEA400C0CF1807CA6
:105AB000BCF17E4F28BF7047B0F1C04000F013B971
:105AC00090EA010F0CEAD11348BF42F4807262459C
:105AD00038BF634507D213F47F0F16D080EA010068
