:020000040800F2
:10000000401C00205D020008E51C0008E71C0008F9
:10001000EB1C0008EF1C0008F31C000800000000A7
:10002000000000000000000000000000F71C0008B5
:10003000F91C000800000000FB1C0008FD1C000863
:1000400077020008770200087702000877020008AC
:10005000770200087702000877020008770200089C
:10006000770200087702000877020008770200088C
:10007000770200087702000877020008770200087C
:10008000770200087702000877020008770200086C
:10009000B12500087702000877020008CF30000879
:1000A000770200087702000877020008770200084C
:1000B00077020008770200084D1200087702000856
:1000C000770200087702000877020008770200082C
:1000D00077020008A50F00081B10000899100008FF
:1000E000DF2F0008770200087702000800000000F8
:1000F0000000000000000000000000000000000000
:1001000000000000000000007702000877020008ED
:10011000BF10000877020008770200087702000885
:1001200077020008770200087702000877020008CB
:1001300077020008770200087702000877020008BB
:100140007702000887260008770200087702000877
:1001500000F002F800F070F80AA090E8000C824469
:100160008344AAF10107DA4501D100F065F8AFF246
:10017000090EBAE80F0013F0010F18BFFB1A43F085
:1001800001031847988E0000B88E00000A444FF013
:10019000000C10F8013B13F0070408BF10F8014BE6
:1001A0001D1108BF10F8015B641E05D010F8016B2B
:1001B000641E01F8016BF9D113F0080F1EBF10F88F
:1001C000014BAD1C0C1B09D16D1E58BF01F801CBB2
:1001D000FAD505E014F8016B01F8016B6D1EF9D535
:1001E0009142D6D37047000000230024002500264A
:1001F000103A28BF78C1FBD8520728BF30C148BF8A
:100200000B607047662908F06C85642906F0F6805B
:10021000782906F02F81732906F0E18400207047C9
:100220001FB506F0F3FC04000020002107F0F6FDE6
:10023000E0601FBD10B510BD06F0ECFD1146FFF7E4
:10024000EFFF00F074FA06F00AFE03B4FFF7F2FFC6
:1002500003BC01F055FD000030BF00000948804795
:1002600009480047FEE7FEE7FEE7FEE7FEE7FEE798
:10027000FEE7FEE7FEE7FEE704480549054A064BB0
:1002800070470000C56200085101000840160020B8
:10029000401C0020401800204018002010B50246E5
:1002A000002000210AE001EBC103F74CE35C93421C
:1002B00003D101EBC1032344581C491C0929F2D383
:1002C00010BD38B50446012000900020EF49487069
:1002D0000120009038E0BDF80000204028B14FF424
:1002E0000061EB4803F019FF04E04FF40061E848B7
:1002F00003F015FF4FF40041E54803F00EFF3220F4
:1003000001F0FEFE4FF40041E14803F008FF322007
:1003100001F0F6FE4FF40041DD4803F0FEFE4FF41D
:100320008061DB4803F0DFFE012806D1D748407822
:10033000BDF800100843D5494870BDF800004FF6DD
:10034000FF7101EA40000090BDF80000FF28C2DD07
:1003500038BD10B54FF48041CD4803F0E0FECD49E3
:100360000878FFF7AEFFCB494878FFF7AAFF4FF4B4
:100370008041C74803F0D1FEC4484078732801D1BA
:10038000002010BD0120FCE71CB5002001900120D9
:1003900000908103BE4803F0C2FEBE490878FFF713
:1003A00090FFBC494878FFF78CFF0220019039E0AC
:1003B000012000902AE04FF40041B54803F0ADFE63
:1003C0004FF40041B24803F0AAFE322001F098FE3B
:1003D0004FF40041AE4803F0A0FE4FF48061AC48FA
:1003E00003F081FE01280AD1A8489DF80410405C62
:1003F000BDF800100843A5499DF804208854BDF8B5
:1004000000004FF6FF7101EA40000090BDF80000C7
:10041000FF28D0DD322001F073FE9DF80400401C5F
:10042000C0B201909DF804000928C1DB4FF480415F
:10043000974803F072FE1CBD002004E00021934A9F
:100440001154411CC8B20928F8DB704710B5FFF7FA
:10045000F3FFFFF799FF8D48C0788C49097940EA8E
:1004600001208D49088000240FE08C4810F814000A
:10047000401E012101FA00F087490988084010B99F
:10048000601CC0B210BD601CC4B2102CEDDB00209B
:10049000F8E701467D48405C70478178C27841EAC0
:1004A0000221C1F30A017E4A1180C178C910027984
:1004B00041EA4211C1F30A01794A51800179891157
:1004C000427941EA8201827941EA8221C1F30A013B
:1004D000734A918081794910C27941EAC211C1F30E
:1004E0000A016F4AD180C1790911027A41EA0211E9
:1004F000C1F30A016A4A1181017AC911427A41EABB
:100500004201827A41EA4221C1F30A01644A5181DF
:10051000817A8910C27A41EA8211C1F30A01604AE4
:100520009181C17A4911027B41EAC2015C4AD181C1
:10053000417B827B41EA0221C1F30A01584A1182C0
:10054000817BC910C27B41EA4211C1F30A01544ABE
:100550005182C17B8911027C41EA8201427C41EADD
:100560008221C1F30A014E4A9182417C4910827C6A
:1005700041EAC211C1F30A01494AD182817C0911C1
:10058000C27C41EA0211C1F30A01454A1183C17CD0
:10059000C911027D41EA4201427D41EA4221C1F393
:1005A0000A013F4A5183417D8910827D41EA8211CF
:1005B000C1F30A013A4A9183817D4911C27D41EA22
:1005C000C201374AD183704701B508E0002001E03D
:1005D000411CC8B26428FBDB0099491E00910099B8
:1005E0000029F3D108BD08B50121402003F023FC08
:1005F0000320ADF8000014208DF8030003208DF8CF
:1006000002006946274803F0DBFC08BD08B501215C
:10061000202003F010FC0320ADF8000010208DF81E
:10062000030003208DF8020069461F4803F0C8FC50
:1006300008BD08B50121102003F0FDFB4FF4D07078
:10064000ADF8000010208DF8030003208DF80200A3
:100650006946164803F0B4FC08BD08B5012108201E
:1006600003F0E9FB4FF48060ADF8000028208DF81E
:1006700003006946064803F0A3FC4FF48061044878
:1006800003F04DFD08BD0000D68D0008E40B0020EE
:10069000000C0140040000200200002006000020A1
:1006A000EE0B002000180140001401400010014032
:1006B00008B50121082003F0BEFB4CF64030ADF830
:1006C000000010208DF8030003208DF80200694619
:1006D000FE4803F075FC08BD7FB505460C460121B8
:1006E000042003F0B5FBADF80850ADF8044000203D
:1006F000ADF80600ADF80A0001A9F54804F07EFD4A
:1007000001221146F24805F0F0F81E208DF8000095
:1007100001208DF803008DF801008DF80200684675
:1007200003F005F90121EA4805F0C4F87FBD09206E
:1007300001F080FD01F057FB01F0F5FA01F001FC3A
:1007400002F044FB4FF4A06003F0ECF840F2CF213C
:1007500040F2CF70FFF7C0FF02F034FAFFF7A8FFB6
:10076000FFF77BFFFFF765FFFFF750FFFFF73BFF4A
:10077000482001F08DFC082303221146002001F0DF
:10078000AFFD082303221146002001F023FE4FF4A1
:10079000FA60FFF719FF0220CE4908604021CB48DC
:1007A00003F0BBFC4FF48071C84803F0B6FC4FF473
:1007B0000071C64803F0B1FC0121C74803F0AFFC4B
:1007C0000221C54803F0ABFC0121C44803F0A5FC9D
:1007D0000221C24803F0A1FCC149C24801F074FEE5
:1007E000012001F071FCC049BE4801F06DFE0120FE
:1007F00001F06AFCBD49BB4801F066FE012001F032
:1008000063FCBB49B74801F05FFE012001F05CFCCE
:10081000B849B44801F058FE012001F055FCB64932
:10082000B04801F051FE012001F04EFCB349AD4843
:1008300001F04AFE012001F047FCB149A94801F04E
:1008400043FE012001F040FCAE49A64801F03CFE09
:10085000012001F039FCAC49A24801F035FE01202D
:1008600001F032FCA9499F4801F02EFE012001F061
:100870002BFCA7499B4801F027FE012001F024FC36
:10088000A449984801F020FE012001F01DFC3DE341
:10089000A149A24801F018FE012001F015FCA04971
:1008A0009E4801F011FE012001F00EFC9D499B487D
:1008B00001F00AFE012001F007FC9B49974801F076
:1008C00003FE012001F000FC98480068B8B9002040
:1008D00097490860D021974803F0FCFD322001F0D1
:1008E0000FFC0221934803F0F5FD322001F008FCD3
:1008F000BC21904803F0EEFD322001F0E5FB8B486F
:100900000068012817D1002089490860D221894850
:1009100003F0E0FD322001F0F3FB0221854803F0F3
:10092000D9FD322001F0ECFBBC21824803F0D2FD5E
:10093000322001F0C9FB7D480068022817D1002051
:100940007B490860D4217B4803F0C4FD322001F0CC
:10095000D7FB0221774803F0BDFD322001F0D0FB28
:10096000BC21744803F0B6FD322001F0ADFB6F48A6
:100970000068032817D100206D490860D6216D4812
:1009800003F0A8FD322001F0BBFB0221694803F00F
:10099000A1FD322001F0B4FBBC21664803F09AFDB2
:1009A000322001F091FB61480068042817D1002033
:1009B0005F490860D8215F4803F08CFD322001F0C8
:1009C0009FFB02215B4803F085FD322001F098FB7C
:1009D000BC21584803F07EFD322001F075FB5348DE
:1009E0000068042805DA51480068401C4F49086037
:1009F00002E000204D49086000204F49086022E0D5
:100A00004D480178012088404C4908604C484A49CB
:100A1000096850F8210040F6B831884207DA4948A1
:100A200000784649097808434649087006E0454879
:100A30000078424909688843424908703E48006886
:100A4000401C3D4908603C4800680528D8DB3E480A
:100A5000007810B100203C49087008213B4802F0A2
:100A60002DF900203A49088010E03949098801EB46
:100A70004101384A8818082102F020F9012001F0CC
:100A800023FB33480088401C3149088030480088E7
:100A90003528EADB00202E49088010E02C4909881F
:100AA00001EB41012C4A8818082102F007F90120C6
:100AB00001F00AFB26480088401C2549088024488C
:100AC00000883528EADB0020214947E0000C01407E
:100AD000000800407004002000180140001401408C
:100AE0006803002000640040A0020020B40200203F
:100AF000C80200207C03002090030020A4030020F3
:100B0000B8030020CC030020E0030020F403002001
:100B1000080400202C0300201C0400200068004072
:100B200030040020440400205804002078020020F3
:100B30007C02002000440040880200208C0200203B
:100B4000380C00203E000020000000205C00002047
:100B50003C0200205F000020FE000020088010E022
:100B6000FD49098801EB4101FC4A8818082102F07F
:100B7000A5F8012001F0A8FAF7480088401CF649C2
:100B80000880F54800883528EADBF5480068022827
:100B90007ED1F448FFF781FCF348008940F28A21B6
:100BA000884276DAF0480089642872DDEE48C08811
:100BB000EE490968081AB0F5FA7F5BDAEA48C0889E
:100BC000EA490968081A10F5FA7F53DDE6484088BB
:100BD000E7490968081AB0F5FA7F4BDAE24840881D
:100BE000E3490968081A10F5FA7F43DDDE48C0883A
:100BF00040F24C4188420DDADB48C088B0F5617F95
:100C000008DDD9484088884204DAD7484088B0F5E2
:100C1000617F05DCD448C08840B9D348408828B9F2
:100C20000020D4490860D449086023E0CE484088B9
:100C3000C0F57A70CF490860CB484088C0F57A701B
:100C4000CD490860C849C988A1F57A7000EBD07118
:100C5000C84A126802EB6101C64A1160C249C988DC
:100C6000A1F57A7000EBD071C34A1268A2EB610162
:100C7000C14A1160C1484068B0F5967F27DDBD4884
:100C80000068BD490968884221DBBC48806801E0F2
:100C90002AE10CE1B0F5967F0CDDB848C068B0F5EC
:100CA000967F07DDB3480068002803DAB248006881
:100CB000002850DBB1480069B0F5967F07DDAD48EC
:100CC0000068002803DDAC480068002843DCAB481E
:100CD0000068B0F5967F24DDA6480068A64909683B
:100CE00088421EDAA5488068B0F5967F0CDDA348DF
:100CF000C068B0F5967F07DD9E480068002803DADB
:100D00009D480068002826DB9C480069B0F5967F66
:100D100007DD98480068002803DD97480068002830
:100D200019DC96484068B0F5967F07DD9148006869
:100D3000002803DD9048006800280CDB8F4800681D
:100D4000B0F5967F7EDD8B48006800287ADA8A4805
:100D500000680028F6DD87480068002816DD854910
:100D60000868C11700EB11610912A0EB0121CAB29A
:100D70008349CA737F490868C11700EB11610A0AE9
:100D80007F490A7400217E48417481747948006863
:100D900028B900217A48C17301744174817475487F
:100DA000006800281BDA73490968481CC11700EB6A
:100DB00011610912A0EB0121491ECAB27049CA7320
:100DC0006C490968481CC11700EB11610912491EE2
:100DD000CAB26B490A74FF2169484174817466483C
:100DE000006800281DDD64490968481EC11700EB32
:100DF00011610912A0EB0121C1F1FF01CAB26149E1
:100E0000CA735D490968481EC11700EB11610912D8
:100E1000C1F1FF01CAB25B490A74FF21594841740C
:100E200081745548006828B900215648C17301747F
:100E3000417481745048006800281BDA4E490868E4
:100E4000C11700E025E000EB11610912A0EB0121C0
:100E50004942CAB24B49CA7347490868C11700EBF7
:100E6000116109124942CAB246490A740021454833
:100E7000417481744249444801F026FB012001F08D
:100E800023F94049404801F01FFB012001F01CF903
:100E90000DE03E493C4801F017FB012001F014F938
:100EA0003B49394801F010FB012001F00DF92E48B3
:100EB000008940F2465188420DDD3449324801F044
:100EC00003FB012001F000F931492F4801F0FCFA41
:100ED000012001F0F9F82448C0882449086022481C
:100EE00040882349086011E01D48006801280DD1A1
:100EF0002849254801F0E8FA012001F0E5F82649E3
:100F0000214801F0E1FA012001F0DEF8C0E410B55B
:100F100005F0D8F910BD08B50121102002F08BFFB3
:100F20004FF48070ADF8000028208DF8030069466A
:100F30001A4803F045F808BD08B50121402002F029
:100F40007AFF0C20ADF8000028208DF803006946D8
:100F5000134803F035F808BD3C0200209D01002035
:100F600070040020120C0020EE0B002098020020DC
:100F70009C0200209002002094020020380C0020E7
:100F8000DC020020F002002000640040400300204A
:100F90005403002004030020180300200010014027
:100FA0000018014070B5002540F22551FE4803F0BD
:100FB00015FB58B1FC4803F091FAC4B2FB48017824
:100FC0000078401CF94A1070F948445440F224411A
:100FD000F54803F003FB98B1F3480088C5B2F24826
:100FE000001D0088C5B240F22441EF4803F020FB09
:100FF000EE480078401EEE4908700120EB49087069
:101000000821E94803F0D4FA30B1E74803F066FA62
:101010000821E54803F0D9FA70BD10B540F225511A
:10102000E44803F0DBFA08B3E348006878B9E14824
:1010300003F054FAC4B22002E049E14A126841F8D0
:101040002200DD480068401CDB4908600EE0D948FA
:1010500003F044FAC4B2D948D949096850F82100CC
:101060002044D649D64A126841F8220040F227713E
:10107000D04803F0B3FA28B1002240F22771CD48DE
:1010800003F0C7F90821CB4803F092FA18B1082100
:10109000C84803F09AFA10BD70B5002540F22551FA
:1010A000C84803F09BFA18B1C64803F017FAC4B257
:1010B0002146C54802F002FCC449087070BD10B555
:1010C0000821C34803F074FA30B1C14803F006FAAE
:1010D0000821BF4803F079FA40F22551BC4803F0DB
:1010E0007DFA00287DD040F22551B94803F0A0FADE
:1010F000B84AB949B94801F079FBB64800780128E7
:1011000070D1B7490860B4480068002816DDB249BC
:101110000868C11700EB11610912A0EB0121CAB2E6
:10112000B049CA73AC490868C11700EB11610A0ADB
:10113000AC490A740021AB4841748174A648006828
:1011400028B90021A748C173017441748174A24871
:10115000006800281BDAA0490968481CC11700EB89
:1011600011610912A0EB0121491ECAB29D49CA733F
:1011700099490968481CC11700EB11610912491E01
:10118000CAB298490A74FF21964841748174934801
:10119000006800281DDD91490968481EC11700EB51
:1011A00011610912A0EB0121C1F1FF01CAB28E4900
:1011B000CA738A490968481EC11700EB11610912F8
:1011C000C1F1FF01CAB288490A74FF2186484174FF
:1011D00081748248006800281CDA80490868C117B9
:1011E00001E026E01FE000EB11610912A0EB0121F4
:1011F0004942CAB27C49CA7378490868C11700EBF2
:10120000116109124942CAB277490A74002176482D
:10121000417481747148006828B900217248C17313
:101220000174417481746B480078022801D16C49C3
:10123000086040F22771664803F0D0F928B1002217
:1012400040F22771624803F0E4F810BD2DE9F05F29
:101250000121664804F0F7FD00287DD0644903C9E8
:1012600007F02CF863490860634903C907F026F8C2
:10127000624908605F48006840425E49086008466D
:10128000006807F04AF882465D4A5E4B07F070F846
:1012900080465D4A5D4B07F06BF8064600225C4BCA
:1012A00006F0B4FE044606F0CFFD5A4908605348E4
:1012B000006807F032F80646514A524B07F058F8DA
:1012C0008246514A514B07F053F880460022504B5A
:1012D00006F09CFE044606F0B7FD4F49086008463C
:1012E00001684C48006807F087FC81464FF0804158
:1012F00007F0C0FA044607F02FFA07464FF03332E2
:10130000464B06F083FE054606F09EFD4449086004
:10131000414801683F48006807F04AFA04464FF028
:10132000804107F0A7FA3F4908600846006807F0C7
:1013300013FA804689463A48006807F00DFA82465B
:1013400006F0CEFC064642464B4607F011F804462E
:1013500006F07AFD344900E04DE10860314800684C
:1013600007F0FAF982468B462D48006807F0F4F939
:10137000804606F003FD064652465B4606F0F8FF3F
:10138000044606F061FD294908602949886807F08C
:10139000E3F9064606F0F2FC044606F055FD254941
:1013A00008602349886847E0003801406C04002049
:1013B000120C0020004400407C020020380C002069
:1013C00078020020004800400005002000000020B6
:1013D000004C0040500000204C000020480000203D
:1013E00070040020040300201803002000080040BF
:1013F000900400206C02002098040020700200205D
:101400000AD7A3703DBA58401B2FDD240681953FB3
:1014100000C0A240500200205402002033333A4062
:101420005400002058000020480200204C020020F8
:101430002C0C00205802002007F08EF9064606F01A
:101440004FFC044606F000FDF9490860F9480168C0
:10145000F948006807F004FB0646F8480168F448BC
:10146000006807F0FDFA0746314607F0C5FB054660
:10147000F34907F0FFF90446F2480168204607F0F7
:1014800097F9F0490860EB480168E948006807F0FF
:10149000E7FA0646E9480168E748006807F0E0FA1D
:1014A0000746314607F084F90546E54907F0E2F9B9
:1014B0000446E4484168204607F07AF9E14948606B
:1014C0008868E149096807F073F9DE4988600868AF
:1014D000DB4907F0C5FA044607F08EFADB490860DD
:1014E000D8494868D64907F0BBFA044607F084FAA1
:1014F000D7490860D3498868D14907F0B1FA044652
:1015000007F07AFAD3490860D349D1F81002D349D9
:1015100007F0A6FA044607F06FFA00B2D049088037
:10152000CD49D1F81402CD4907F09AFA044607F0E4
:1015300063FA00B2CB490880C749D1F81802C749FD
:1015400007F08EFA044607F057FA00B2C649088041
:10155000C149D1F81C02C14907F082FA044607F0DC
:101560004BFA00B2C1490880BB49D1F82002BB49FF
:1015700007F076FA044607F03FFA00B2BC4908804B
:10158000B549D1F82402B54907F06AFA044607F0D4
:1015900033FA00B2B7490880AF49D1F83402AF49F5
:1015A00007F05EFA044607F027FA00B2B249088055
:1015B000A949D1F83802A94907F052FA044607F0C0
:1015C0001BFA00B2AD490880A349D1F83C02A349F7
:1015D00007F046FA044607F00FFA00B2A84908805F
:1015E000A84903C906F06AFE00B2A7490880012194
:1015F000A64804F039FCBDE8F09F01B590B0109802
:1016000090F8CC0662287CD01098D0F80C020246E4
:101610009FA10D909FA004F081FE1098D0F81802B1
:10162000079007F099F8CDE90C011098D0F8140252
:10163000079007F091F8CDE90A011098D0F8100250
:10164000079007F089F8CDE90801DDE90C01CDE943
:101650000201DDE90A01CDE9000191A192A0DDE9D5
:10166000082304F05BFE1098D0F82402079007F0DE
:1016700073F8CDE90C011098D0F82002079007F01C
:101680006BF8CDE90A011098D0F81C02079007F01A
:1016900063F8CDE90801DDE90C01CDE90201DDE9DE
:1016A0000A01CDE9000186A17FA0DDE9082304F04D
:1016B00035FE1098D0F83002079007F04DF8CDE9CC
:1016C0000C011098D0F82C02079007F045F8CDE9EE
:1016D0000A011098D0F82802079007F03DF8CDE9EC
:1016E0000801DDE90C01CDE90201DDE90A01CDE9DE
:1016F000000176A16CA0DDE9082304F00FFE10982C
:1017000000E021E1D0F83C02079007F025F8CDE990
:101710000C011098D0F83802079007F01DF8CDE9B9
:101720000A011098D0F83402079007F015F8CDE9B7
:101730000801DDE90C01CDE90201DDE90A01CDE98D
:10174000000165A158A0DDE9082304F0E7FD109829
:10175000D0F84C02059006F0FFFFCDE90C0110987F
:10176000D0F84802059006F0F7FFCDE90A0110987D
:10177000D0F84402059006F0EFFFCDE9080110987B
:10178000D0F84002059006F0E7FFCDE90601DDE95B
:101790000C01CDE90401DDE90A01CDE90201DDE931
:1017A0000801CDE900014FA150A0DDE9062304F0B6
:1017B000B5FD1098D0F850020B9006F0CDFF024610
:1017C0000B46CDE90C0150A153A004F0A7FD1098E1
:1017D000D0F85402024653A10D902EA004F09EFDB5
:1017E00054A004F09BFD00200E9016E0109800F22B
:1017F000CC600E99405C0C90FEF750FD0D90109857
:1018000000F2CC600E99405C0C9001464BA00D9A02
:1018100004F084FD0E98401C0E90109890F8D41699
:101820000E988142E2DC37A004F078FD40E200002F
:101830005C0200204C0200205802002048020020D8
:101840000000C8422C0C0020540000206002002040
:1018500064020020680200200005002000007A4495
:101860002A0000202C0000202E0000203000002044
:101870003200002034000020360000203800002014
:101880003A000020A00400203C0000200008004096
:1018900069643A00252D31367325640D0A00000075
:1018A0006163632847293A00252D313673252E338D
:1018B0006620252E336620252E33660D0A00000093
:1018C000677972286465672F73293A006D6167280C
:1018D0007554293A0000000065756C286465672915
:1018E0003A000000717561743A000000252D313610
:1018F00073252E336620252E336620252E33662051
:10190000252E33660D0A00007072657375726528A6
:101910007061293A00000000252D313673252E33E1
:10192000660D0A0074696D657374616D70286D735E
:10193000293A00006974656D3A200000307825303E
:101940003258282573290000DA490A2004F05AFE8B
:10195000109890F809020090109890F80802D6A309
:101960000246D8A10D90D9A004F0D8FC00200E901A
:1019700097E1D0490A2004F045FE0E9800EB4001A3
:1019800001EB0011109800F5037050F82100024699
:10199000AFF204110D90AFF2041004F0BFFC0E98EA
:1019A00000EB400101EB0011109800F5037000EB13
:1019B0008100C068079006F0CFFECDE90C010E98BB
:1019C00000EB400101EB0011109800F5037000EBF3
:1019D00081008068079006F0BFFECDE90A010E98ED
:1019E00000EB400101EB0011109800F5037000EBD3
:1019F00081004068079006F0AFFECDE90801DDE9FF
:101A00000C01CDE90201DDE90A01CDE90001AFF2E7
:101A10007011AFF26C10DDE9082304F07FFC0E9822
:101A200000EB400101EB0011109800F5037000EB92
:101A300081008069079006F08FFECDE90C010E98B9
:101A400000EB400101EB0011109800F5037000EB72
:101A500081004069079006F07FFECDE90A010E98EB
:101A600000EB400101EB0011109800F5037000EB52
:101A700081000069079006F06FFECDE90801DDE9FD
:101A80000C01CDE90201DDE90A01CDE90001AFF267
:101A9000D011AFF2EC10DDE9082304F03FFC0E9802
:101AA00000EB400101EB0011109800F5037000EB12
:101AB0008100406A079006F04FFECDE90C010E98B8
:101AC00000EB400101EB0011109800F5037000EBF2
:101AD0008100006A079006F03FFECDE90A010E98EA
:101AE00000EB400101EB0011109800F5037000EBD2
:101AF0008100C069079006F02FFECDE90801DDE9FD
:101B00000C01CDE90201DDE90A01CDE90001AFF2E6
:101B10004421AFF26C20DDE9082304F0FFFB0E98AE
:101B200000EB400101EB0011109800F5037000EB91
:101B30008100006B079006F00FFECDE90C010E98B6
:101B400000EB400101EB0011109800F5037000EB71
:101B50008100C06A079006F0FFFDCDE90A010E98EA
:101B600000EB400101EB0011109800F5037000EB51
:101B70008100806A079006F0EFFDCDE90801DDE9FC
:101B80000C01CDE90201DDE90A01CDE90001AFF266
:101B9000B821AFF2EC20DDE9082304F0BFFB0E987A
:101BA00000EB400101EB0011109800F5037000EB11
:101BB0008100006C059006F0CFFDCDE90C010E9878
:101BC00000EB400101EB0011109800F5037000EBF1
:101BD0008100C06B059006F0BFFDCDE90A010E98AB
:101BE00000EB400101EB0011109800F5037000EBD1
:101BF0008100806B059006F0AFFDCDE908010E98DD
:101C000000EB400101EB0011109800F5037000EBB0
:101C10008100406B059006F09FFDCDE90601DDE9EE
:101C20000C01CDE90401DDE90A01CDE90201DDE99C
:101C30000801CDE90001AFF25431AFF25030DDE9D7
:101C4000062304F06BFB0E9800EB400101EB001142
:101C5000109800F5037000EB8100406C0B9006F0CB
:101C60007BFD02460B46CDE90C01AFF26431AFF2C9
:101C7000583004F053FB0E9800EB400101EB0011CB
:101C8000109800F5037000EB8100806C0246AFF203
:101C90006C310D90AFF2044004F040FB0E98401CF4
:101CA0000E90109890F809120E9881423FF761AE9D
:101CB00011B000BD780400206E6F646520636E74FF
:101CC0003A000000677769643A0000006761746554
:101CD0007761793A20257325642C20257325640DBE
:101CE0000A000000704700BFFEE700BFFEE700BF2C
:101CF000FEE700BFFEE7704770477047704700007F
:101D0000014600BF704770B504460D46E1B2D748A2
:101D100002F0E0FB00BFD548008800F080000028FA
:101D2000F9D0204670BD00B587B00121052002F032
:101D300082F80121480402F08BF80420ADF8180065
:101D400018208DF81B0003208DF81A0006A9C8483A
:101D500002F036F90820ADF8180004208DF81B00B9
:101D600003208DF81A0006A9C14802F029F9C148DC
:101D700002F074FA4FF4E13002900020ADF80C004C
:101D8000ADF80E00ADF81000ADF814000C20ADF861
:101D9000120002A9B74802F0A4FA012240F225512C
:101DA000B44802F036FB012240F22771B14802F03C
:101DB00030FB0121AF4802F020FB4021AD4802F08A
:101DC00004FC4FF4C06001F0ADFD26208DF8040046
:101DD00000208DF8060001208DF8070001A801F011
:101DE000A6FD07B000BD00B587B0012144F2040094
:101DF00002F021F84FF48060ADF8180004208DF84F
:101E00001B0003208DF81A0006A9994802F0D8F8A3
:101E1000994802F023FA994802900020ADF80C008E
:101E20004FF40050ADF80E00C010ADF810000020C7
:101E3000ADF814000420ADF8120002A98E4802F09B
:101E400050FA012240F225518B4802F0E2FA0122B9
:101E500040F22441884802F0DCFA012260218648E1
:101E600002F0D7FA0121844802F0C7FA4FF4E0608B
:101E700001F058FD25208DF8040000208DF80600A3
:101E800001208DF8070001A801F051FD07B000BD49
:101E900000B587B00121212001F0CDFF0121880488
:101EA00001F0D6FF0121764802F05BF94FF4807013
:101EB000ADF8180003208DF81A0018208DF81B00CB
:101EC00006A9704802F07CF84FF40070ADF81800D5
:101ED00004208DF81B0006A96A4802F071F84FF43F
:101EE000806001F01FFD27208DF8040003208DF88D
:101EF000060001208DF8070001A801F018FD6248D6
:101F000002F0ACF94FF4E13002900020ADF80C0083
:101F1000ADF80E00ADF81000ADF814000C20ADF8CF
:101F2000120002A9584802F0DCF9012240F22551C2
:101F3000554802F06EFA0121534802F05EFA07B0EC
:101F400000BD00B587B00121112001F074FF01210F
:101F5000C80401F07DFF4FF48060ADF81800182030
:101F60008DF81B0003208DF81A0006A9474802F0DF
:101F700027F84FF40060ADF8180004208DF81B001E
:101F800003208DF81A0006A9404802F019F83748D6
:101F900002F064F94FF4E13002900020ADF80C003B
:101FA000ADF80E00ADF81000ADF814000C20ADF83F
:101FB000120002A92D4802F094F9012240F22551A5
:101FC0002A4802F026FA012240F22771274802F03F
:101FD00020FA0121254802F010FA4021234802F09E
:101FE000F4FA4FF4E06001F09DFC34208DF8040019
:101FF00000208DF8060001208DF8070001A801F0EF
:1020000096FC07B000BD2DE9F04107460D46164687
:1020100000240CE0295D384602F05CFA00BF402144
:10202000384602F0C5FA0028F9D0601C84B2B442E8
:10203000F0DBBDE8F0812DE9F04106460C46204674
:1020400004F0E2FAC7B200250CE0615D304602F010
:1020500041FA00BF4021304602F0AAFA0028F9D028
:10206000681CC5B2BD42F0DBBDE8F081004C004009
:10207000000801400044004000380140A0860100F3
:1020800030001400001401400048004000100140DE
:102090004FF0E021096921F004014FF0E0221161C5
:1020A000C21700EB5272C2F3C702234B1A701946D3
:1020B000097801EB4102C2EBC1114FF6FF7202EA4F
:1020C000C1011E4A1180704701461C4A12884A43CA
:1020D0004FF0E0235A6100229A6101221A6100BF89
:1020E0004FF0E022106900F001021AB100F48032D2
:1020F000002AF5D000224FF0E0231A619A61704760
:1021000001460D4A12784A434FF0E0235A610022FB
:102110009A6101221A6100BF4FF0E022106900F0BD
:1021200001021AB100F48032002AF5D000224FF0EB
:10213000E0231A619A6170477C0400207E0400202D
:102140005E4A0A4002435E4B1A607047014607230D
:1021500023EA010212025A4B1B1D18684FF6FF03B7
:102160001840584B18431043554B1B1D18607047BF
:10217000002055490861C86014204861002088612A
:10218000C8610846006840F00100086008464068E1
:102190004E4908404C494860084600684C49084090
:1021A000494908600846006820F480200860084615
:1021B000406820F4FE00486000208860704710B539
:1021C0003F480830006840F004003D49083108608D
:1021D0003D48C06940F080503B49C8613D48406877
:1021E00040F480703B4948600846006840F00400B5
:1021F00008600846006840F002000860FEF72CF80E
:1022000010BD3048001D2E49091D08607047014669
:1022100049062D4A926942F001022B4B9A612E4ADF
:10222000526822F0E0622C4B5A601A4652680A4308
:102230005A60704700B502460023FFF799FF224815
:10224000006840F480302049086000BF1E480068E4
:10225000400C0028FAD04FF480601B494860901E63
:10226000C2B20846406840EA82404860084640687A
:1022700040F4803048601948006840F03200174947
:1022800008601148006840F080700F49086000BF86
:102290000D480068400E0028FAD00B48406840F016
:1022A00002000949486005E007484068C0F3870319
:1022B00003F00303022BF7D100BD000080FFFF1FD6
:1022C00008ED00E00000FA05001002400000FFF8F1
:1022D000FFFFF6FE007000400000014000200240B9
:1022E000F0B589B007460C4615461E46012105206B
:1022F00001F0A1FD0121480601F0AAFD4FF40060A4
:10230000ADF8200048208DF8230003208DF822002E
:1023100008A9FE4801F054FE4FF48050ADF82000AB
:1023200018208DF8230003208DF8220008A9F74813
:1023300001F046FE14208DF8000001208DF8010008
:1023400000208DF8020001208DF80300684601F09E
:10235000EEFAEF4802F086F905A802F0A7FA00208D
:102360008DF81A008DF81B008DF81C008DF81D00EB
:102370008DF81E008DF81F008DF816008DF817706F
:102380008DF818408DF81950ADF8146005A9E04893
:1023900002F081F900208DF80E008DF80F00012069
:1023A0008DF810000020ADF80400ADF80600ADF87F
:1023B0000800ADF80A00ADF80C0001208DF81100FE
:1023C00001A802F0F2F901220221D14802F0ECFC4E
:1023D00009B0F0BDF0B589B007460C4615461E465B
:1023E0000121092001F027FD0121880601F030FDBF
:1023F0004FF48050ADF8200048208DF823000320D2
:102400008DF8220008A9C34801F0DAFD4FF400500E
:10241000ADF8200018208DF8230003208DF822004D
:1024200008A9BC4801F0CCFD41208DF80000002037
:102430008DF8010001208DF802008DF80300684638
:1024400001F075FAB44802F00DF905A802F02EFA71
:1024500000208DF81A008DF81B008DF81C008DF8F7
:102460001D008DF81E008DF81F008DF816008DF8E8
:1024700017708DF818408DF81950ADF8146005A943
:10248000A54802F008F90E208DF80E0000208DF806
:102490000F0001208DF810000020ADF80400ADF809
:1024A0000600ADF80800ADF80A000120ADF80C00F8
:1024B0008DF8110001A802F078F901221021964848
:1024C00002F072FC09B0F0BD2DE9F04104460D4662
:1024D000002600272946204602F056FA0746761CB9
:1024E0000026BDE8F0812DE9F04105460E4617466D
:1024F000002407E0325D89A1284603F01BFFED1C94
:10250000601CC4B2BC42F5DBBDE8F08130B58FB0D1
:1025100005460C463C21684604F095F82A4681A100
:10252000684603F007FF69467F48FFF784FD207A7D
:10253000E0B97EA16846226803F0FCFE69467A484D
:10254000FFF779FDA27A7CA1684603F0F3FE6946A5
:102550007548FFF770FD082204F10B016846FFF78C
:10256000C2FF69467048FFF766FD1BE073A168462D
:10257000626803F0DFFE69466B48FFF75CFDA27AF4
:102580006DA1684603F0D6FE69466748FFF753FD24
:10259000082204F10B016846FFF7A5FF694662486F
:1025A000FFF749FD68A16048FFF745FD0FB030BD5A
:1025B00000B585B00020009001908DF808008DF8DE
:1025C0000A008DF813006A460021514802F0D1FA42
:1025D00040F281110098884253D19DF80E007F2867
:1025E00011DA9DF80B209DF80C104FF4807303FB5B
:1025F00001229DF80D101B0203FB012005F08DFE4A
:10260000524A03C213E09DF80B10FF399DF80C20CD
:10261000FF3A4FF4807303FB02129DF80D10FF394F
:102620001B0203FB012005F078FE484A03C29DF817
:1026300012007F2811DA9DF80F209DF810104FF43A
:10264000807303FB01229DF811101B0203FB012084
:1026500005F063FE3E4A03C213E09DF80F10FF39F8
:102660009DF81020FF3A4FF4807303FB02129DF88F
:102670001110FF391B0203FB012005F04EFE344A06
:1026800003C205B000BD00B585B0002000900190E8
:102690008DF808008DF80A008DF813006A460121B4
:1026A0001D4802F066FA0098B0F5807F12D19DF8BF
:1026B00010209DF80F1002EB012005F02EFE254A98
:1026C00003C29DF81100244908609DF8111023A051
:1026D00003F024FE40F201110098884207D19DF8D2
:1026E00010109DF80F0001EB00201F4908600098B2
:1026F000B0F5817F07D19DF80F001C4908609DF857
:1027000010001B49086040F2051133E00008014049
:1027100000640040000C0140006800402C2530326D
:102720005800000025640000004400402C5330781D
:1027300025303858000000002C2564002C453078E6
:1027400025303858000000000D0A000090040020D9
:1027500098040020A0040020A80400206461746193
:10276000363A202578202000AC040020B004002058
:10277000B40400200098884217D19DF80C109DF8F1
:102780000B0001EB00200A4908609DF80E109DF82F
:102790000D0001EB0020064948609DF810109DF8DF
:1027A0000F0001EB00200249886005B000BD000069
:1027B0004C0C002030B502460B46002010E012F809
:1027C000014B6040002109E000F001041CB18C24A1
:1027D00084EA600000E040104C1CE1B20829F3DB01
:1027E0001C1EA3F10105ABB2E9D130BD2DE9F041CA
:1027F00005460E4617460024D74801F06FFEC4B2C6
:10280000D6480078112818D1AA2C13D1D4480078C2
:1028100055280ED10020D1490870D2480078D249FD
:102820000870D048407848700020D0490870D049DE
:102830000870AAE0CA480470A7E0CC48007830B11C
:1028400001280FD002282AD003287DD149E0C648AC
:1028500084708078C7490880C4480078401CC34908
:10286000087091E0C049C448B0F90000C01C0C5485
:10287000C1480088401C00B2BF4908800846B0F932
:102880000000BC49B1F90010884207DB0020BA49BA
:102890000880B6480078401CB449087074E0B54818
:1028A000B0F90000C01CB0490C54B2480088C01CEC
:1028B00081B2AD48FFF77EFFAD490870AD48B0F971
:1028C0000000C01CA849085CA9490978884202D0C8
:1028D0000020BDE8F081A5480078401CA34908709D
:1028E00052E0A648008830B9A4480088401C00B2D5
:1028F000A249088046E0A1480088012842D1002072
:102900009E4908801BE098499C48B0F90000C01C13
:10291000095C9B48994AB2F9002081549249974832
:10292000B0F90000401D085C9649944AB2F90020B5
:10293000885492480088401C00B2904908808F4813
:10294000B0F90000022800E01DE0DCDB8C48B0F9A3
:10295000000028608B48B0F9000030608248C079E0
:1029600038700020814908707D49087011207B492A
:10297000087000207E4908707E4908807E490880E2
:102980007E49088000E000BF00BF0020A1E710E002
:1029900000BF714A128802F08002002AF9D0027842
:1029A0006D4B1B1D1A80401C774A1268521C764BD7
:1029B0001A60754A12688A42EADB0022724B1A607A
:1029C00070472DE9F04F89B006460F46904699466C
:1029D000DDE912AB2421684603F035FE00256B4883
:1029E00006806B4807806B48A0F800806A48A0F812
:1029F00000906A48A0F800A06948A0F800B06949B2
:102A000014980880684915980880684916980880C5
:102A10006749179808806749189808806649199887
:102A2000088066491A980880002404E04D48005D3B
:102A30000DF80400641C022CF8DB1B258DF80250F5
:102A400000244BE05148015DE01C0DF80010504897
:102A5000015D601D0DF800104E48015DE01D0DF890
:102A600000104D48015D04F109000DF800104B48BD
:102A7000015D04F10B000DF800104948015D04F1FF
:102A80000D000DF800104748015D04F10F000DF82E
:102A900000104548015D04F111000DF80010434895
:102AA000015D04F113000DF800104148015D04F1CF
:102AB00015000DF800103F48015D04F117000DF8F6
:102AC00000103D48015D04F119000DF800103B486D
:102AD000015D04F11B000DF80010641C022CB1DB39
:102AE000A81C1B990DF80010E81C81B26846FFF77E
:102AF00061FEE91C0DF8010031480178281D0DF830
:102B000000102F484178681D0DF8001021216846FB
:102B1000FFF73DFF09B0BDE8F08FF0B503460C4666
:102B20001888002113E0675C80EA072000250BE08D
:102B3000460000F4004CBCF1000F03D041F2210C20
:102B400086EA0C0630466D1C082DF1D3491C9142D3
:102B5000E9D31880F0BD0000004C0040DD040020E7
:102B6000DC040020278E0008640C0020D70400201D
:102B7000D6040020DE040020D8040020DA0400205F
:102B8000D2040020D4040020E0040020B804002077
:102B9000BA040020BC040020BE040020C0040020B1
:102BA000C2040020C4040020C6040020C804002081
:102BB000CA040020CC040020CE040020D004002051
:102BC000298E000800B593B00121082001F033F9E7
:102BD0000120ADF82C0018208DF82F0003208DF86F
:102BE0002E000BA9754801F0EBF90121022001F03C
:102BF0002FF95920ADF844000020ADF84000ADF8A1
:102C00004600ADF8420010A96D4802F0F7FA6020C6
:102C1000ADF830000120ADF832000020ADF83600EC
:102C2000ADF838000CA9664802F025FB6020ADF82D
:102C300030000120ADF832000020ADF83600ADF8CC
:102C400038000CA95E4802F058FB6020ADF8300057
:102C50000120ADF832000020ADF83600ADF83800A4
:102C60000CA9574802F096FB0121084601F0D6F85E
:102C7000544803F0FDF852483C300090524801900F
:102C8000102002902A2003900020049080200590BC
:102C90004000069080000790002008904FF40050FC
:102CA000099000200A906946464803F083F9012202
:102CB000D102434802F029FE13B000BD2DE9F041D6
:102CC00006460F4607EB47002B2101EBC0001FFA19
:102CD00080F800243AE000250EE07078A84000F06B
:102CE000800008B1322000E01920374921F8140093
:102CF000601C84B2681CC5B2082DEEDB00250EE016
:102D00003078A84000F0800008B1322000E019209F
:102D10002D4921F81400601C84B2681CC5B2082D2E
:102D2000EEDB00250EE0B078A84000F0800008B18E
:102D3000322000E01920244921F81400601C84B2DC
:102D4000681CC5B2082DEEDB781E87B2002FC2D1F9
:102D5000B078802101EA002008B1322000E019207B
:102D6000194921F81400601C84B205E000201649BE
:102D700021F81400601C84B24445F7DB4146114839
:102D800003F058F901210F4803F03FF901210C48E5
:102D900002F090FD00BF202003F052F90028FAD085
:102DA0000021074802F086FD0021064803F02DF9B6
:102DB000202003F059F9BDE8F0810000000C01402B
:102DC000000400401C000240CC0E002010B54FF45F
:102DD000A06000F0A7FD00F0BFF900F0C2F810BD40
:102DE0003EB505460C460121022001F031F8ADF850
:102DF0000450ADF800400020ADF80200ADF8060028
:102E00006946D04802F0FAF90021CE4802F052FD9E
:102E10003EBD08B50121102001F00DF84FF460709F
:102E2000ADF8000010208DF8030003208DF802009B
:102E30006946C54801F0C4F84FF48071C24801F0FA
:102E40006EF98021C04801F06AF94FF40071BE4864
:102E500001F065F90121202000F0EDFF4FF48060C2
:102E6000ADF8000028208DF8030003208DF8020043
:102E70006946B64801F0A4F80121202000F0DBFFEC
:102E80004FF40060ADF8000028208DF80300032007
:102E90008DF802006946AD4801F092F8012110203A
:102EA00000F0C9FF4020ADF8000028208DF8030095
:102EB00003208DF802006946A34801F081F808BD9F
:102EC0000EB50121084600F0B6FF0A21032001F0EB
:102ED0008DF90B21032001F089F94FF44060019036
:102EE00000208DF8080008208DF8090001208DF8D9
:102EF0000A0001A803F0F4F828208DF80000022051
:102F00008DF8010001208DF802008DF8030068465D
:102F100000F00DFD0EBD0EB50121084600F08BFF3F
:102F20000621022001F062F94020019000208DF876
:102F3000080008208DF8090001208DF80A0001A87A
:102F400003F0CEF817208DF8000002208DF8010064
:102F500001208DF802008DF80300684600F0E7FCC0
:102F60000EBD10B5FFF755FFFFF7AAFFFFF7D3FF20
:102F700040F2CF214FF6FF70FFF732FF10BD10B5C2
:102F80004FF48071704801F0C8F81420FFF7B8F8CA
:102F90004FF480716C4801F0C2F80A20FFF794F8F2
:102FA0008021694801F0B9F81420FFF7A9F88021C1
:102FB000654801F0B4F80A20FFF786F84FF4007175
:102FC000614801F0AAF81420FFF79AF84FF4007155
:102FD0005D4801F0A4F80A20FFF776F810BD2DE94E
:102FE000F0414FF4806003F0E1F8A0B34FF480604B
:102FF00003F0EDF80021534802F0F0FE01215148A2
:1030000002F058FC07E04F4802F00BFF40F2DC51A1
:10301000884200DB06E04FF480614C4801F063F821
:103020000028F0D100BF0021464802F043FC45488B
:1030300002F0F7FE4FF4AA7100FB01F4204605F000
:103040006CF905460022424B04F0E0FF074604F00D
:10305000FBFE404908604FF4006003F0A7F8A0B3FE
:103060004FF4006003F0B3F80021364802F0B6FEDA
:103070000121344802F01EFC07E0324802F0D1FE84
:1030800040F2DC51884200DB06E04FF400612F483B
:1030900001F029F80028F0D100BF0021294802F0F2
:1030A00009FC284802F0BDFE4FF4AA7100FB01F4B0
:1030B000204605F032F905460022254B04F0A6FF14
:1030C000074604F0C1FE23494860BDE8F0812DE9C0
:1030D000F041402003F06AF890B3402003F077F805
:1030E0000021184802F07AFE0121164802F0E2FBA6
:1030F00007E0144802F095FE40F2DC51884200DB04
:1031000005E04021104800F0EEFF0028F1D100BF9B
:1031100000210C4802F0CEFB0A4802F082FE4FF478
:10312000AA7100FB01F4204605F0F7F805460022DD
:10313000074B04F06BFF074604F086FE05498860E4
:10314000BDE8F0810004004000100140001401407F
:1031500000409F40D415002030B500201B49086076
:103160001B4908604821B1F1807F01D301201DE097
:1031700021F07F40401E4FF0E022506150170F2297
:10318000002807DA13071D0E124B00F00F04241F4E
:103190001D5503E013071C0E0F4B1C5400BF0020ED
:1031A0004FF0E022906107201061002008B100BFBD
:1031B000FEE730BD06480068704704480068704765
:1031C000002002490860024908607047E4040020BA
:1031D000E804002018ED00E000E400E008B5014636
:1031E00008880090BDF8000008BD014608687047D7
:1031F000014608687047F0B503460C461888002160
:1032000013E0675C80EA072000250BE0460000F42D
:10321000004CBCF1000F03D041F2210C86EA0C06F1
:1032200030466D1C082DF1D3491C9142E9D318801A
:10323000F0BD014691F8CC26622A07D0002000E0BC
:10324000401C91F8D4268242FADC06E0002000E01F
:10325000401C91F809228242FADC70472DE9F041C6
:1032600004460025002704F10E0604F5D060002175
:10327000C1640165002084F8D406EBE2705DB028DB
:1032800054D008DC62287CD090280DD0912879D0C9
:10329000A02878D11AE0C0287FD0D02875D0D128B6
:1032A00074D0F028F5D1FEE0012084F809029021C5
:1032B00094F8D426501C84F8D40604F2CC608154CF
:1032C00070194078C4F80C02AD1CC2E2012084F8E9
:1032D0000902A02194F8D426501C84F8D40604F2E4
:1032E000CC6081547119B1F9010005F0A1FB804651
:1032F000FE4905F0BFFA4FF4047108517119B1F994
:10330000030005F095FB8046F84905F0B3FAC4F8D0
:1033100014027119B1F9050005F08AFB8046F349E2
:1033200005F0A8FAC4F81802ED1D92E2012084F815
:103330000902B02194F8D426501C84F8D40604F273
:10334000CC6081547119B1F9010005F071FB804620
:10335000E74905F08FFA4FF4077108517119B1F977
:10336000030005F065FB8046E14905F083FAC4F8E7
:1033700020027119B1F9050005F05AFB8046DC49BD
:1033800005E03BE1A4E062E207E036E062E005F040
:1033900071FAC4F82402ED1D5BE2012084F80902F1
:1033A000C02194F8D426501C84F8D40604F2CC60D2
:1033B00081547119B1F9010005F03AFB8046CC49FE
:1033C00005F058FA4FF40A7108517119B1F9030068
:1033D00005F02EFB8046C64905F04CFAC4F82C02D5
:1033E0007119B1F9050005F023FB8046C04905F0CD
:1033F00041FAC4F83002ED1D2BE2D02194F8D42616
:10340000501C84F8D40604F2CC6081547119B1F9CF
:10341000010005F00DFB8046B64905F02BFA4FF48C
:103420000D7108517119B1F9030005F001FB8046D7
:10343000B04905F01FFAC4F838027119B1F9050056
:1034400005F0F6FA8046AA4905F014FAC4F83C02E1
:10345000ED1DFEE1012084F80902D12194F8D42663
:10346000501C84F8D40604F2CC6081547119481CB5
:10347000FFF7BEFE4FF4107108517119481DFFF798
:10348000B7FEC4F84402711901F10900FFF7B0FE5C
:10349000C4F84802711901F10D00FFF7A9FEC4F844
:1034A0004C021135D5E1012084F80902F02194F88D
:1034B000D426501C84F8D40604F2CC6081547119CF
:1034C000481CFFF795FE4FF4147108516D1DC0E1C3
:1034D000012084F80902912194F8D426501C84F824
:1034E000D40604F2CC60815470194078C4F80C0200
:1034F0007119081DFFF77CFE4FF414710851711902
:1035000001F10800FFF771FE4FF4157108517119B0
:1035100001F10C00FFF76CFE4FF4047108517119B2
:1035200001F11000FFF764FEC4F81402711901F1F3
:103530001400FFF75DFEC4F81802711901F11800BC
:10354000FFF756FE4FF407710851711901F11C0085
:10355000FFF74EFEC4F82002711901F12000FFF7B9
:1035600047FEC4F82402711901F12400FFF740FE60
:103570004FF40A710851711901F12800FFF738FE64
:10358000C4F82C02711901F12C00FFF731FEC4F8C8
:103590003002711901F13000FFF72AFE4FF40D716E
:1035A0000851711901F13400FFF722FEC4F8380206
:1035B000711901F13800FFF71BFEC4F83C027119C4
:1035C00001F13C00FFF714FE4FF41071085171191E
:1035D00001F14000FFF70CFEC4F84402711901F13B
:1035E0004400FFF705FEC4F84802711901F14800D4
:1035F000FFF7FEFDC4F84C024C352AE1622194F835
:10360000D426501C84F8D40604F2CC60815470197E
:10361000407884F808027019807884F80902083527
:1036200000270EE17019417807EB470000EB071205
:1036300004F5037040F822107119081DFFF7D8FD3A
:1036400007EB470101EB071204F5037101EB82015F
:103650004864711901F10800FFF7C7FD07EB470146
:1036600001EB071204F5037101EB82018864711903
:1036700001F10C00FFF7BCFD07EB470101EB07125E
:1036800004F5037101EB82014860711901F110002A
:10369000FFF7AEFD07EB470101EB071204F50371DD
:1036A00001EB82018860711901F11400FFF7A0FDA0
:1036B00007EB470101EB071204F5037101EB8201EF
:1036C000C860711901F11800FFF792FD07EB47017F
:1036D00001EB071204F5037101EB82010861711916
:1036E00001F11C00FFF784FD06E0000000007A44B1
:1036F000000020410000C84207EB470101EB071220
:1037000004F5037101EB82014861711901F1200098
:10371000FFF76EFD07EB470101EB071204F503719C
:1037200001EB82018861711901F12400FFF760FD4E
:1037300007EB470101EB071204F5037101EB82016E
:10374000C861711901F12800FFF752FD07EB47012D
:1037500001EB071204F5037101EB82010862711994
:1037600001F12C00FFF744FD07EB470101EB0712C5
:1037700004F5037101EB82014862711901F1300017
:10378000FFF736FD07EB470101EB071204F5037164
:1037900001EB82018862711901F13400FFF728FD05
:1037A00007EB470101EB071204F5037101EB8201FE
:1037B000C862711901F13800FFF71AFD07EB4701E4
:1037C00001EB071204F5037101EB82010863711923
:1037D00001F13C00FFF70CFD07EB470101EB07127D
:1037E00004F5037101EB82014863711901F1400096
:1037F000FFF7FEFC07EB470101EB071204F503712D
:1038000001EB82018863711901F14400FFF7F0FCBC
:1038100007EB470101EB071204F5037101EB82018D
:10382000C863711901F14800FFF7E2FC07EB47019B
:1038300001EB071204F5037101EB820108644C35BA
:103840007F1C94F80902B8423FF7ECAE01E06D1C12
:1038500000BF00BF6068A8423FF710AD0120BDE87F
:10386000F08138B5044600200090042204F10801DC
:103870006846FFF7C0FC04F10E0168466268FFF776
:10388000BAFC04F10C00FFF7A9FCBDF80010884257
:1038900002D04FF0FF3038BD2046FFF7DFFCFAE7DB
:1038A000024650781070517010785A2804D1507820
:1038B000A52801D1012070470020FCE770B504461F
:1038C0000D46206858B9294604F10800FFF7E8FFC3
:1038D00008B9002070BD022020600020FAE72168AE
:1038E000481C206004F108004554206806280BD1CC
:1038F00004F10A00FFF772FC6060B0F5FD7F03DDA4
:1039000000202060401EE5E7D4E90010801D8142C0
:1039100001DA0020DEE7002020602046FFF7A1FF4B
:10392000D8E7000031490143314A1160704770B552
:10393000002100230F22C47804B32D4C246804F422
:10394000E064C4F5E064210AC1F10403CA4044788C
:1039500004FA03F18478144021430901254C0678C8
:10396000A155047804F01F050124AC4005786D11C1
:10397000AD0005F1E025C5F8004109E0047804F048
:103980001F050124AC401C4D0678761145F82640F1
:1039900070BD1A4A0A400243154B1B1F1A6070473C
:1039A00039B1134A121D12680243114B1B1D1A60D4
:1039B00006E00F4A121D126882430D4B1B1D1A6050
:1039C0007047042808D14FF0E021096941F0040153
:1039D0004FF0E022116107E04FF0E021096921F08A
:1039E00004014FF0E0221161704700000000FA0569
:1039F0000CED00E000E400E080E100E080FFFF1F4C
:103A0000FB48006840F00100F9490860084640683A
:103A1000F8490840F649486008460068F6490840F9
:103A2000F34908600846006820F4802008600846D2
:103A3000406820F4FE0048600846006820F0A0506E
:103A400008604FF47F0088600020C8627047E84932
:103A5000096821F48031E64A11601146096821F4B1
:103A600080211160B0F5803F03D0B0F5802F0ED1DA
:103A700006E0DF49096841F48031DD4A116007E062
:103A8000DB49096841F4A021D94A116000E000BF78
:103A900000BF704710B501460022002300204A11E4
:103AA000012A02D1D24C236806E0022A02D1D04C6E
:103AB000236A01E0CE4C636A01F01F0201249440A6
:103AC0001C400CB1012000E0002010BD38B50020E2
:103AD00000900024002500BF3120FFF7DBFF0546E2
:103AE0000098401C00900098B0F5A06F01D0002D08
:103AF000F2D03120FFF7CEFF08B1012400E000240E
:103B0000204638BD01460020B94A106820F0F80070
:103B100040EAC10010607047B8490860704702462B
:103B20000020B34B586820F4741042EA0103184394
:103B3000AF4B58607047B149086670470246002095
:103B4000AB4BD86AAE4B184042EA01031843A84B6E
:103B5000D862704701460020A54AD06A20F0F000E4
:103B60000843D062704701460020A14AD06A20F481
:103B700070600843D0627047A0498866704701466C
:103B800000209B4AD06A20F470400843D0627047FE
:103B90009A490867704701460020954A506820F00E
:103BA00003000843506070479148406800F00C00E3
:103BB0007047014600208E4A506820F0F00008430C
:103BC0005060704701460020894A506820F4E06048
:103BD00008435060704701460020854A506820F431
:103BE000605040EAC1005060704729B1804A527A63
:103BF00002437F4B5A7204E07D4A527A82437C4BE7
:103C00005A7270477D49D8310860704701460020DC
:103C1000774A506820F44040084350607047794923
:103C2000086070477749091D086070470021704A95
:103C3000203211706E4A82F82010012802D0042828
:103C40000AD104E001216A4A2032117005E0052101
:103C5000674A2032117000E000BF00BF70476A4918
:103C6000086070476249096A0143614A11627047FE
:103C700065494439086070472DE9F0410021002270
:103C8000002500230026002400278C46DFF86081F1
:103C9000D8F8048008F00C0121B1042907D00829C4
:103CA00059D109E0DFF86481C0F8008058E0DFF8FE
:103CB0005C81C0F8008053E0DFF83481D8F80480DC
:103CC00008F47012DFF82881D8F8048008F48035F1
:103CD000920C0D2A01D0921C00E0062235B9DFF8C3
:103CE000308102FB08F8C0F8008033E0DFF8008183
:103CF000D8F82C8008F48036DFF8F480D8F82C80CF
:103D000008F00F0808F1010446B9DFF80081B8FB9C
:103D1000F4F808FB02F8C0F800801BE0DFF8D08060
:103D2000D8F82C80C8F3031808F10107DFF8C08029
:103D3000D8F82C80C8F3032808F1020CDFF8CC80F7
:103D4000B8FBF7F808FB0CF8B8FBF4F808FB02F82E
:103D5000C0F8008004E0DFF8B480C0F8008000BF45
:103D600000BFDFF88C80D8F8048008F0F001090962
:103D7000DFF8A08018F80130D0F8008028FA03F8A6
:103D8000C0F80480DFF86880D8F8048008F4E061A7
:103D9000090ADFF8808018F80130D0F8048028FA8A
:103DA00003F8C0F80880DFF84880D8F8048008F4E9
:103DB0006051C90ADFF85C8018F80130D0F804803F
:103DC00028FA03F8C0F80C80DFF82480D8F80480C3
:103DD00008F44041890BDFF8408018F80130D0F832
:103DE0000C80B8FBF3F8C0F81080BDE8F08100004B
:103DF000001002400000FFF0FFFFF6FE000042420C
:103E0000F0FFFEFFC40542428004424200127A00E5
:103E100000093D00EC040020FC04002029B1354AD3
:103E200052690243334B5A6104E0324A5269824379
:103E3000304B5A61704729B12E4A926902432D4B8B
:103E40009A6104E02B4A926982432A4B9A61704737
:103E500029B1284AD2690243264BDA6104E0254A97
:103E6000D2698243234BDA61704729B1214A926AB1
:103E70000243204B9A6204E01E4A926A82431D4B21
:103E80009A62704729B11B4AD2680243194BDA6023
:103E900004E0184AD2688243164BDA60704729B1B1
:103EA000144A12690243134B1A6104E0114A126961
:103EB0008243104B1A6170470F49086070470F49E1
:103EC000C86470470B49C87170470A48406A40F09F
:103ED000807008494862704701460020054A926890
:103EE0000A400AB1012000E00020704701498872B1
:103EF000704700000010024040044242000042426D
:103F000010B50446CC48844208D101210420FFF7B3
:103F1000B9FF00210420FFF7B5FF46E0C7488442FF
:103F200008D101210820FFF7ADFF00210820FFF78D
:103F3000A9FF3AE0C248844208D101211020FFF7CE
:103F4000A1FF00211020FFF79DFF2EE0BD48844215
:103F500008D101212020FFF795FF00212020FFF745
:103F600091FF22E0B848844208D101214020FFF7A8
:103F700089FF00214020FFF785FF16E0B348844207
:103F800008D101218020FFF77DFF00218020FFF76D
:103F900079FF0AE0AE48844207D101218015FFF77E
:103FA00071FF0021A015FFF76DFF10BD10B50121B5
:103FB0000846FFF767FF00210120FFF763FF10BDF0
:103FC0002DE9F041024600250026002000230024B0
:103FD000002791F803C00CF00F0591F803C00CF016
:103FE000100CBCF1000F03D091F802C04CEA05059B
:103FF00091F800C0BCF1000F31D0146800202BE014
:104000004FF0010C0CFA00F3B1F800C00CEA030603
:104010009E4220D183004FF00F0C0CFA03F7BC43F3
:1040200005FA03FC4CEA040491F803C0BCF1280F24
:1040300006D14FF0010C0CFA00FCC2F814C00AE0E3
:1040400091F803C0BCF1480F05D14FF0010C0CFAF8
:1040500000FCC2F810C0401C0828D1D31460B1F88D
:1040600000C0BCF1FF0F34DD546800202EE000F1E9
:10407000080C4FF0010808FA0CF3B1F800C00CEA84
:1040800003069E4221D183004FF00F0C0CFA03F778
:10409000BC4305FA03FC4CEA040491F803C0BCF1EC
:1040A000280F05D100F1080C08FA0CF8C2F81480AA
:1040B00091F803C0BCF1480F07D100F1080C4FF094
:1040C000010808FA0CF8C2F81080401C0828CED36A
:1040D0005460BDE8F0814FF6FF71018002218170CC
:1040E0000421C17070470246002093680B400BB159
:1040F000012000E0002070470146886880B27047C8
:1041000002460020D3680B400BB1012000E00020E4
:1041100070470146C86880B27047016170474161CD
:1041200070470AB1016100E041617047C1607047AA
:104130004FF480320A4382618161826182698269BF
:10414000704702460020434B18684FF680731840B2
:1041500040EA021008433F4B186070473E49C8616F
:104160007047F0B50A46002300240021002500F026
:104170000046B6F1004F02D1364EF16901E0354EEE
:104180007168C0F3034583B200F44016B6F5401FD2
:1041900008D121F070612F4E766826F070662D4FA1
:1041A0007E6012E000F48016B6F5801F06D103266B
:1041B00006FA05F4A14341F0706106E0460D3601B0
:1041C00003FA06F6B14341F0706122B1460D3601A3
:1041D00003FA06F6314300F00046B6F1004F02D173
:1041E0001C4EF16101E01B4E7160F0BD30B5002244
:1041F0008B071C0F0F2303FA04F2164B08338C10A5
:1042000053F824309343134C08348D1044F8253070
:1042100023468C1053F824308C07240F00FA04F442
:1042200023430C4C08348D1044F8253030BD0A4926
:10423000DC3108607047000000080140000C0140BC
:10424000001001400014014000180140001C014012
:1042500000200140000001400000204210B504464B
:10426000FB48844209D101218803FFF70BFE00219E
:104270004FF48040FFF706FE32E0F648844209D151
:1042800001214804FFF70BFE00214FF40030FFF737
:1042900006FE25E0F048844209D101218804FFF799
:1042A000FEFD00214FF48020FFF7F9FD18E0EB48F8
:1042B000844209D10121C804FFF7F1FD00214FF428
:1042C0000020FFF7ECFD0BE0E548844208D1012116
:1042D0000805FFF7E4FD00214FF48010FFF7DFFD34
:1042E00010BD2DE9F04786B005460E460024A246D3
:1042F00000BFA1460027B08900B100BF2F462C8A1D
:104300004CF6FF700440F08804432C82AC894EF6D2
:10431000F3100440B088318908437189084304438D
:10432000AC81AC8A4FF6FF400440B0890443AC82B4
:1043300001A8FFF7A1FCC648874202D1DDF810A012
:1043400001E0DDF80CA0A88900F4004040B10AEBC0
:10435000CA0000EB0A1031684900B0FBF1F807E031
:104360000AEBCA0000EB0A1031688900B0FBF1F8D3
:104370006420B8FBF0F004012009642101FB1089DE
:10438000A88900F4004040B1322000EBC900B0FB26
:10439000F1F000F00700044308E0322000EB0910C0
:1043A0006421B0FBF1F000F00F0004432C8106B053
:1043B000BDE8F0874FF41651016000218180C18073
:1043C00001810C21418100218181704710B5024695
:1043D0000020108A4FF2FF0318400B884C882343BB
:1043E0008C882343CC8823431843108210BD0021BE
:1043F000018041808180C180704721B1828942F46F
:104400000052828104E082894DF6FF731A40828156
:104410007047F0B50346002400260025002040F632
:104420006A17B94200D100BF1846C1F3421401F027
:104430001F06012707FA06F5012C01D10C3004E014
:10444000022C01D1103000E014301AB107682F435C
:10445000076002E00768AF430760F0BD1AB1838AC6
:104460000B43838202E0838A8B4383827047028AF4
:104470004FF6F0731A400282028A0A4302827047A2
:1044800082894FF2FF731A40828182890A438281B6
:10449000704721B1828942F00202828104E0828960
:1044A0004FF6FD731A4082817047028A4FF6DF7320
:1044B0001A400282028A0A430282704721B1028AAC
:1044C00042F48042028204E0028A4BF6FF731A40F3
:1044D00002827047C1F308028280704701468888D3
:1044E000C0F308007047818941F001018181704764
:1044F000028BD2B20283028B42EA0122028370470E
:10450000028B02F47F420283028B0A4302837047CC
:1045100021B1828A42F02002828204E0828A4FF630
:10452000DF731A408282704721B1828A42F0100202
:10453000828204E0828A4FF6EF731A4082827047CB
:1045400021B1828A42F00802828204E0828A4FF618
:10455000F7731A408282704721B1828942F4004287
:10456000828103E08289C2F30E028281704721B109
:10457000828A42F40062828204E0828A4FF2FF73F0
:104580001A4082827047828A4FF6FB731A408282F9
:10459000828A0A438282704721B1828A42F00202F3
:1045A000828204E0828A4FF6FD731A40828270474D
:1045B00002460020B1F5007F00D100BF13880B40F8
:1045C0000BB1012000E00020704701F40072B2F549
:1045D000007F00D100BFCA430280704770B5024619
:1045E000002400230025002040F66A16B14200D1C5
:1045F00000BFC1F3421501F01F03012606FA03F3C1
:10460000012D02D19689334006E0022D02D1168A8F
:10461000334001E0968A33400C12012606FA04F476
:104620001688344013B10CB1012000E0002070BDA9
:1046300010B50022002340F66A14A14200D100BF49
:104640000A1201249440A3B2DC43048010BD000090
:10465000003801400044004000480040004C004049
:104660000050004010B50446FE48844209D10121A3
:104670004806FFF714FC00214FF00070FFF70FFC15
:1046800008E001218806FFF70AFC00214FF0806056
:10469000FFF705FC10BD30B502460020002314686A
:1046A00024F002041460146844F00104146000E073
:1046B0005B1C546804F001041CB94FF6FF74A3425C
:1046C000F6D1546804F001040CB900206CE08C7938
:1046D000012C04D1146844F08004146003E01468D1
:1046E00024F080041460CC79012C04D1146844F0C7
:1046F0004004146003E0146824F0400414600C7A51
:10470000012C04D1146844F02004146003E0146800
:1047100024F0200414604C7A012C04D1146844F075
:104720001004146003E0146824F0100414608C7A00
:10473000012C04D1146844F00804146003E01468E8
:1047400024F008041460CC7A012C04D1146844F0DD
:104750000404146003E0146824F0040414608C78EA
:10476000A407CD7844EA05640D7944EA05444D79FF
:1047700044EA05540D886D1E2C43D461146824F05E
:1047800001041460002300E05B1C546804F0010481
:104790001CB14FF6FF74A342F6D1546804F0010433
:1047A0000CB1002000E0012030BD10B50021837A5B
:1047B000012202FA03F1AC4A126842F00102AA4B4C
:1047C0001A60A94A1C3212688A43A74B1C331A602C
:1047D000027BCAB9A44A0C3212688A43A24B0C333A
:1047E0001A604288C38842EA03439F4A4032847A6F
:1047F00042F834300288838842EA03439A4A4032BE
:10480000847A02EBC4025360027B012A19D1964AD2
:104810000C3212680A43944B0C331A6042880388A6
:1048200042EA0343904A4032847A42F83430C288E4
:10483000838842EA03438C4A4032847A02EBC40202
:104840005360C27A3AB9884A121D12688A43864B6D
:104850001B1D1A6006E0844A121D12680A43824B2F
:104860001B1D1A60028932B97F4A143212688A43CA
:104870007D4B14331A600289012A06D17A4A143218
:1048800012680A43784B14331A60427B012A06D11E
:10489000754A1C3212680A43734B1C331A60724A01
:1048A000126822F00102704B1A6010BD0021817164
:1048B000C171017241728172C1728170C170032134
:1048C0000171022141710121018070476649096827
:1048D00041F00101644A11601146096843F60E7205
:1048E0009143614A11601146096841EA0021116053
:1048F0001146096821F001011160704721B1026879
:1049000042F48032026003E0026822F480320260E6
:104910007047E1B1026842F0800202604FF4C27257
:10492000125842F480734FF4C27213504FF4CA729B
:10493000125842F480734FF4CA7213504FF4D2727B
:10494000125842F480734FF4D27213501BE0026885
:1049500022F0800202604FF4C272125822F4807377
:104960004FF4C27213504FF4CA72125822F480737B
:104970004FF4CA7213504FF4D272125822F480735B
:104980004FF4D2721350704710B50246002093685E
:1049900003F08063B3F1806F00D110E0936803F0FF
:1049A0000063B3F1006F01D1012008E0936803F0C8
:1049B0008053B3F1805F01D1022000E0042004287D
:1049C00079D002F5C07303EB00131B6803F00104F8
:1049D00002F5C07303EB00131C600B7A7BB94B7AB2
:1049E0000C8843EA445302F5C07404EB00142468B5
:1049F000234302F5C07404EB0014236010E00B7A2B
:104A00004C6843EAC4034C7A234302F5C07404EBB8
:104A100000142468234302F5C07404EB00142360DF
:104A20008B7A03F00F038B7202F5C07303EB001354
:104A30005B6823F00F0402F5C07303EB00135C60A6
:104A400002F5C07303EB00135B688C7A234302F515
:104A5000C07404EB001463608B7B1C064B7B44EA40
:104A6000034403E000640040006600400B7B44EA1E
:104A70000323CC7A234302F5C07404EB0014A36033
:104A80008B7C1C064B7C44EA03440B7C44EA0323E6
:104A9000CC7B234302F5C07404EB0014E36002F501
:104AA000C07303EB00131B6843F0010402F5C073ED
:104AB00003EB00131C6010BD10B50246002321B1AA
:104AC000012907D002290FD109E09068F94C00EACA
:104AD00004030BE09068F84C00EA040306E09068D9
:104AE000F64C00EA040301E0002300BF00BFF44CD1
:104AF000181BA34216D007DC83B16FF08060184406
:104B000070B1022818D111E0B0F5007F10D0ED4C43
:104B1000204448B1B0F5003F0ED10BE002230DE078
:104B200000230BE0002309E0002307E0012305E058
:104B3000012303E0012301E0002300BF00BFD8B23E
:104B400010BD21B1012907D002290FD109E08268E7
:104B500042F0800282600AE0826842F40042826091
:104B600005E0826842F40002826000E000BF00BFFE
:104B7000704710B500F5D87303EB01131B6803F001
:104B800004031372137A53B900F5D87303EB0113BE
:104B90001B6840F2FF7404EA5353136009E000F508
:104BA000D87303EB01131B686FF0604404EAD3036E
:104BB000536000F5D87303EB01131B6803F0020385
:104BC000537200F5D87303EB01135B6803F00F0316
:104BD000937200F5D87303EB01135B681B0AD3745F
:104BE00000F5D87303EB01139B68D37200F5D873FB
:104BF00003EB01139B681C0A147300F5D87303EBD5
:104C000001139B681C0C547300F5D87303EB01135C
:104C10009B681B0E937300F5D87303EB0113DB68DD
:104C2000D37300F5D87303EB0113DB681C0A14740B
:104C300000F5D87303EB0113DB681C0C547400F50A
:104C4000D87303EB0113DB681B0E937421B9C3689F
:104C500043F02003C36003E0036943F020030361D2
:104C600010BD21B9C26842F02002C26003E00269AF
:104C700042F02002026170470246002019B9D36851
:104C800003F0030006E0012903D1136903F00300D8
:104C900000E00020704710B502460B4600204FF69A
:104CA000FF71BBB9146824F0020444F001041460DD
:104CB00000E0491E546804F00304012C01D00029CF
:104CC000F7D1546804F00304012C01D0002032E035
:104CD000012030E0012B13D1146824F00304146088
:104CE00000E0491E546804F003040CB10029F8D117
:104CF000546804F003040CB100201CE001201AE009
:104D0000022B17D1146824F0010444F0020414604B
:104D100000E0491E546804F00304022C01D000296D
:104D2000F7D1546804F00304022C01D0002002E003
:104D3000012000E0002010BD014600200A6822F09A
:104D4000010242F002020A604A6802F00302022AEB
:104D500000D10120704701464FF6FF7200200B681A
:104D600023F002030B6000E0521E4B6803F00203C5
:104D7000022B01D1002AF7D14B6803F00203022B6A
:104D800000D001207047014600208A6902F07000BF
:104D90007047014600208A69100E704701460020C6
:104DA0008A69C2F3074070471AB143690B434361F4
:104DB00002E043698B434361704710B5024600200F
:104DC00001F4700343B19369C1F3130423400BB1A1
:104DD00001202DE000202BE001F0807343B15368E7
:104DE000C1F3130423400BB1012021E000201FE098
:104DF00001F0006343B19368C1F3130423400BB186
:104E0000012015E0002013E001F0007343B1D368E6
:104E1000C1F3130423400BB1012009E0002007E097
:104E20001369C1F3130423400BB1012000E00020FB
:104E300010BD0022244B994202D10023836111E06E
:104E4000C1F3130201F000730BB1C2600AE001F07C
:104E500080630BB1026105E001F000630BB1826079
:104E600000E0426070470246002002EA01030BB1F5
:104E7000012000E00020704770B504460D46002672
:104E800060692840002872D0B5F5807F69D01DDCAC
:104E9000082D42D006DC012D2DD0022D31D0042D5D
:104EA0007FD134E0102D3ED0202D42D0402D78D13E
:104EB00045E00000030000040003000800000310A8
:104EC000000100080001FFF77000F030B5F5004F59
:104ED00061D009DCB5F5007F4AD0B5F5806F4DD0C3
:104EE000B5F5006F5DD150E0B5F5803F2DD0B5F53B
:104EF000003F56D12FE0A0685549FFF7B4FF0646A2
:104F000051E0E0680321FFF7AEFF06464BE0E068A2
:104F10000821FFF7A8FF064645E0E0681021FFF7EB
:104F2000A2FF06463FE020690321FFF79CFF0646EB
:104F300039E020690821FFF796FF064633E0206933
:104F40001021FFF790FF06462DE060680821FFF76B
:104F50008AFF064627E060681021FFF784FF0646B7
:104F600021E0A0690121FFF77EFF06461BE01BE060
:104F7000A0690221FFF777FF064614E0A06904212B
:104F8000FFF771FF06460EE00BE0A0697021FFF706
:104F90006AFF064607E060680421FFF764FF0646E3
:104FA00001E0002600BF00E00026304670BDB1F5EC
:104FB000007F3AD00FDC202928D006DC01291CD044
:104FC00004291DD0082940D11DE0402921D0B1F588
:104FD000807F3AD126E0B1F5004F31D006DCB1F543
:104FE000806F25D0B1F5006F2FD124E0B1F5803F5F
:104FF00012D0B1F5003F28D111E0154A826025E0BA
:105000000822C26022E01022C2601FE00822026172
:105010001CE01022026119E00822426016E0102212
:10502000426013E00422426010E0042242600DE07E
:10503000042242600AE0002282610422426005E00C
:10504000002282610422426000E000BF00BF70477E
:105050000101010010B50446FE48844208D1012137
:10506000C014FEF70FFF0021E014FEF70BFFC4E0B1
:10507000B4F1804F08D101210846FEF710FF00214E
:105080000120FEF70CFFB8E0F348844208D101216B
:105090000220FEF704FF00210220FEF700FFACE033
:1050A000EE48844208D101210420FEF7F8FE0021D9
:1050B0000420FEF7F4FEA0E0E948844208D1012173
:1050C0000820FEF7ECFE00210820FEF7E8FE94E041
:1050D000E448844208D101211020FEF7E0FE0021BF
:1050E0001020FEF7DCFE88E0DF48844208D1012171
:1050F0002020FEF7D4FE00212020FEF7D0FE7CE029
:10510000DA48844208D101214014FEF7BBFE002199
:105110006014FEF7B7FE70E0D548844209D1012142
:10512000C804FEF7AFFE00214FF40020FEF7AAFEF0
:1051300063E0D048844209D101210805FEF7A2FEB0
:1051400000214FF48010FEF79DFE56E0CA488442CD
:1051500009D101214805FEF795FE00214FF400100A
:10516000FEF790FE49E0C548844208D10121402065
:10517000FEF795FE00214020FEF791FE3DE0C0487D
:10518000844208D101218020FEF789FE0021802081
:10519000FEF785FE31E0BB48844208D1012180152D
:1051A000FEF77DFE0021A015FEF779FE25E0B6484A
:1051B000844209D101210804FEF764FE00214FF466
:1051C0008030FEF75FFE18E0B048844209D101212B
:1051D0004804FEF757FE00214FF40030FEF752FE60
:1051E0000BE0AB48844208D101218804FEF74AFE57
:1051F00000214FF48020FEF745FE10BD00220288FA
:10520000944B98420ED0994B98420BD0B0F1804FFE
:1052100008D0914B984205D0904B984202D0904BC9
:10522000984204D14FF68F731A404B881A438D4B26
:10523000984207D08C4B984204D04FF6FF431A4057
:10524000CB881A4302808B8883850B880385814B2A
:1052500098420BD0854B984208D08B4B984205D092
:105260008A4B984202D08A4B984201D10B7A03862E
:1052700001238382704770B5002400220023058C2F
:105280004FF6FE7635400584028C8388048B4FF6FA
:105290008F752C40B51E2C400D882C43751E2A405E
:1052A0000D892A434D882A436A4DA8420BD06F4D81
:1052B000A84208D0744DA84205D0744DA84202D02F
:1052C000734DA84213D14FF6F7752A404D892A43F2
:1052D0004FF6FB752A408D882A434FF6FF652B4019
:1052E0004FF6FF552B408D892B43CD892B4383806F
:1052F0000483CD888586028470BD70B500240022A9
:105300000023058C4FF6EF7635400584028C8388A8
:10531000048B48F6FF752C404FF6FF452C400D8856
:105320004FF6FF7606EA05252C434FF6DF752A4037
:105330000D8906EA05152A434D8806EA05152A4314
:10534000444DA84202D0494DA8421DD14FF67F7569
:105350002A404D894FF6FF7606EA05152A434FF697
:10536000BF752A408D8806EA05152A434FF6FF359A
:105370002B404FF2FF752B408D8906EA85052B43A4
:10538000CD8906EA85052B4383800483CD88058774
:10539000028470BD70B5002400220023058C4FF6F6
:1053A000FF6635400584028C8388848B4FF68F75A9
:1053B0002C404FF6FC752C400D882C434FF6FF55C2
:1053C0002A400D894FF6FF7606EA05252A434D88C7
:1053D00006EA05252A431F4DA84202D0234DA842C4
:1053E0001DD14FF2FF752A404D894FF6FF7606EA30
:1053F00005252A434FF6FF352A408D8806EA052504
:105400002A434EF6FF752B404DF6FF752B408D89D4
:1054100006EA05152B43CD8906EA05152B43838043
:105420008483CD888587028470BD70B500220023F7
:105430000024058C4EF6FF7635400584038C848865
:10544000828B48F6FF752A404FF6FF452A400D88AB
:1054500020E00000002C0140000400400008004053
:10546000000C0040001000400014004000340140D7
:10547000004C014000500140005401400018004021
:10548000001C00400020004000400140004401405A
:10549000004801404FF6FF7606EA05252A434DF6FF
:1054A000FF752B400D8906EA05352B434D8806EA2A
:1054B00005352B43FA4DA84202D0FA4DA84208D137
:1054C0004BF6FF752C408D894FF6FF7606EA851561
:1054D0002C4384808283CD88A0F84050038470BD23
:1054E000828B4FF2FF331A408283828B4FF6FF7319
:1054F00003EA01231A4382837047F0B50C46154630
:10550000002200210026078C4EF6FF7C07EA0C07DC
:105510000784828B018C4FF6FF7707EA043640F64A
:10552000FF473A404FF6FF7707EA05273A434FF621
:10553000FF7707EA03373A43D94FB8420ED0D94F25
:10554000B8420BD0B0F1804F08D0D74FB84205D049
:10555000D64FB84202D0D64FB84206D14DF6FF77AB
:10556000394046F48057394305E047F6FF57394044
:1055700044F48057394382830184F0BD828B4FF617
:10558000F3731A408283828B0A4382837047F0B59B
:105590000C461546002200210026078C4FF6FF6CB2
:1055A00007EA0C070784828B018C4FF6FF7707EA26
:1055B00004264FF60C773A404FF6FF7707EA0317B9
:1055C0002F433A43B64FB8420ED0B64FB8420BD035
:1055D000B0F1804F08D0B44FB84205D0B34FB842B5
:1055E00002D0B34FB84206D14FF6FF57394046F4C8
:1055F0008077394305E04FF2FF57394044F4807714
:10560000394382830184F0BD028B4FF2FF331A408D
:105610000283028B4FF6FF7303EA01231A430283CE
:105620007047F0B50C461546002200210026078C75
:105630004FF6EF7C07EA0C070784028B018C4FF6CC
:10564000FF7707EA041640F6FF473A404FF6FF7728
:1056500007EA03373A434FF6FF7707EA05273A434D
:105660008F4FB8420ED08F4FB8420BD0B0F1804F61
:1056700008D08D4FB84205D08C4FB84202D08C4F25
:10568000B84206D14FF6DF77394046F0100739436C
:1056900005E04FF65F77394044F010073943028345
:1056A0000184F0BD028B4FF6F3731A400283028B24
:1056B0000A4302837047F0B50C46154600220021CC
:1056C000068C4FF6FE773E400684028B018C4FF627
:1056D0000C7632407E1C06EA03162E433243704E8F
:1056E000B0420ED06F4EB0420BD0B0F1804F08D018
:1056F0006D4EB04205D06D4EB04202D06C4EB042FD
:1057000006D14FF6FD76314044F00106314305E005
:105710004FF6F576314044F00106314302830184AF
:10572000F0BD70B505460C465D4885420ED05D481B
:1057300085420BD0B5F1804F08D05B48854205D03B
:105740005A48854202D05A48854200D100E000BF45
:10575000208850B92389A28861882846FFF7ABFFCB
:10576000E1882846FFF79EFF25E0208804280AD11B
:105770002389A28861882846FFF753FFE1882846DD
:10578000FFF742FF17E0208808280AD12389A28862
:1057900061882846FFF7FBFEE1882846FFF7EEFE0A
:1057A00009E02389A28861882846FFF7A6FEE188E0
:1057B0002846FFF795FE70BD2DE9F04105460C46E1
:1057C00000260127608808B9022600E00026A0888C
:1057D000012801D1022700E001272088A0B92389F0
:1057E000A28861882846FFF766FFE1882846FFF710
:1057F00059FF23893A4631462846FFF712FFE188D0
:105800002846FFF701FF13E02389A2886188284614
:10581000FFF707FFE1882846FFF7F6FE23893A469F
:1058200031462846FFF747FFE1882846FFF73AFF51
:10583000BDE8F0810A884B881A438B881A43CB88CD
:105840001A430B891A434B891A438B891A43A0F8D0
:10585000442070474FF6FF71818000210180C18094
:105860004180017270470021018041808180C180A8
:10587000018141818181C181704700210180418086
:10588000012181800021C1800181704700210180B8
:1058900041808180C1800181418181817047000008
:1058A000002C01400034014000040040000800408A
:1058B000000C004021B1028842F00102028004E0A5
:1058C00002884FF6FE731A400280704731B1B0F87B
:1058D000442042F40042A0F8442005E0B0F84420FF
:1058E000C2F30E02A0F8442070471AB183890B431B
:1058F000838102E083898B43838170478182704773
:1059000041EA0203A0F8483070471AB183890B437B
:10591000838102E083898B438381704701894FF63D
:10592000F8721140018170470A46002101894FF643
:105930008F73194011430181704730B504460D46FD
:1059400029462046FFF7F0FF208940F0070020811C
:1059500030BD2DE9F04104460D4616461F46602D28
:1059600006D13B46012231462046FFF75AFE05E0AC
:105970003B46012231462046FFF79DFE2946204640
:10598000FFF7D2FF208940F007002081BDE8F081B9
:1059900030B50C4600210189C9B24FF6FF7505EA02
:1059A0000325154325432943018130BD2DE9F041ED
:1059B00005460E4617469846002443463A46314669
:1059C0002846FFF7E5FF2C894FF6F870044044F0B5
:1059D00007044FF68F70044044F070042C81BDE83A
:1059E000F081F0B504460D4616461F463B4632464A
:1059F00029462046FFF7CCFF208940F480402081D3
:105A0000F0BD0185828270470A46002101884FF669
:105A10008F731940114301807047F0B50C4615464D
:105A20001E460021002200230189028B038C4FF6C1
:105A3000F877394021434FF6FC473A4040F20117CE
:105A40003A434FF6DD773B404FF6FF7707EA0617FC
:105A50002F433B43018102830384F0BD0A460021AA
:105A6000018B4FF68F7319401143018370470A462B
:105A70000021018B48F6FF7319404FF6FF7303EACC
:105A800002231943018370470A460021818B4FF698
:105A90008F7319401143818370470A460021818B1F
:105AA00048F6FF7319404FF6FF7303EA02231943C8
:105AB0008183704721B1028842F08002028004E0B5
:105AC00002884FF67F731A400280704721B18288A6
:105AD00042F00402828004E082884FF6FB731A4091
